No.     Time           Source                Destination           Protocol Length Info
    105 3.892646534    Espressi_0d:83:09     Broadcast             802.11   301    Beacon frame, SN=1, FN=0, Flags=........C, BI=100, SSID=Wildcard (Broadcast)

Frame 105: 301 bytes on wire (2408 bits), 301 bytes captured (2408 bits) on interface 0
    Interface id: 0 (sniffer)
        Interface name: sniffer
    Encapsulation type: IEEE 802.11 plus radiotap radio header (23)
    Arrival Time: May 12, 2020 17:52:04.103242953 CEST
    [Time shift for this packet: 0.000000000 seconds]
    Epoch Time: 1589298724.103242953 seconds
    [Time delta from previous captured frame: 0.013923851 seconds]
    [Time delta from previous displayed frame: 0.013923851 seconds]
    [Time since reference or first frame: 3.892646534 seconds]
    Frame Number: 105
    Frame Length: 301 bytes (2408 bits)
    Capture Length: 301 bytes (2408 bits)
    [Frame is marked: True]
    [Frame is ignored: False]
    [Protocols in frame: radiotap:wlan_radio:wlan]
Radiotap Header v0, Length 26
    Header revision: 0
    Header pad: 0
    Header length: 26
    Present flags
        Present flags word: 0x0000482f
            .... .... .... .... .... .... .... ...1 = TSFT: Present
            .... .... .... .... .... .... .... ..1. = Flags: Present
            .... .... .... .... .... .... .... .1.. = Rate: Present
            .... .... .... .... .... .... .... 1... = Channel: Present
            .... .... .... .... .... .... ...0 .... = FHSS: Absent
            .... .... .... .... .... .... ..1. .... = dBm Antenna Signal: Present
            .... .... .... .... .... .... .0.. .... = dBm Antenna Noise: Absent
            .... .... .... .... .... .... 0... .... = Lock Quality: Absent
            .... .... .... .... .... ...0 .... .... = TX Attenuation: Absent
            .... .... .... .... .... ..0. .... .... = dB TX Attenuation: Absent
            .... .... .... .... .... .0.. .... .... = dBm TX Power: Absent
            .... .... .... .... .... 1... .... .... = Antenna: Present
            .... .... .... .... ...0 .... .... .... = dB Antenna Signal: Absent
            .... .... .... .... ..0. .... .... .... = dB Antenna Noise: Absent
            .... .... .... .... .1.. .... .... .... = RX flags: Present
            .... .... .... .0.. .... .... .... .... = Channel+: Absent
            .... .... .... 0... .... .... .... .... = MCS information: Absent
            .... .... ...0 .... .... .... .... .... = A-MPDU Status: Absent
            .... .... ..0. .... .... .... .... .... = VHT information: Absent
            .... .... .0.. .... .... .... .... .... = frame timestamp: Absent
            .... .... 0... .... .... .... .... .... = HE information: Absent
            .... ...0 .... .... .... .... .... .... = HE-MU information: Absent
            ...0 000. .... .... .... .... .... .... = Reserved: 0x0
            ..0. .... .... .... .... .... .... .... = Radiotap NS next: False
            .0.. .... .... .... .... .... .... .... = Vendor NS next: False
            0... .... .... .... .... .... .... .... = Ext: Absent
    MAC timestamp: 129741607
    Flags: 0x10
        .... ...0 = CFP: False
        .... ..0. = Preamble: Long
        .... .0.. = WEP: False
        .... 0... = Fragmentation: False
        ...1 .... = FCS at end: True
        ..0. .... = Data Pad: False
        .0.. .... = Bad FCS: False
        0... .... = Short GI: False
    Data Rate: 1,0 Mb/s
    Channel frequency: 2442 [BG 7]
    Channel flags: 0x00a0, Complementary Code Keying (CCK), 2 GHz spectrum
        .... .... ...0 .... = Turbo: False
        .... .... ..1. .... = Complementary Code Keying (CCK): True
        .... .... .0.. .... = Orthogonal Frequency-Division Multiplexing (OFDM): False
        .... .... 1... .... = 2 GHz spectrum: True
        .... ...0 .... .... = 5 GHz spectrum: False
        .... ..0. .... .... = Passive: False
        .... .0.. .... .... = Dynamic CCK-OFDM: False
        .... 0... .... .... = Gaussian Frequency Shift Keying (GFSK): False
        ...0 .... .... .... = GSM (900MHz): False
        ..0. .... .... .... = Static Turbo: False
        .0.. .... .... .... = Half Rate Channel (10MHz Channel Width): False
        0... .... .... .... = Quarter Rate Channel (5MHz Channel Width): False
    Antenna signal: -34dBm
    Antenna: 0
    RX flags: 0x0000
        .... .... .... .... .... ..0. = Bad PLCP: False
802.11 radio information
    PHY type: 802.11b (4)
    Short preamble: False
    Data rate: 1,0 Mb/s
    Channel: 7
    Frequency: 2442MHz
    Signal strength (dBm): -34dBm
    TSF timestamp: 129741607
    [Duration: 2392µs]
        [Preamble: 192µs]
        [IFS: 11529µs]
        [Start: 129739215µs]
        [End: 129741607µs]
IEEE 802.11 Beacon frame, Flags: ........C
    Type/Subtype: Beacon frame (0x0008)
    Frame Control Field: 0x8000
        .... ..00 = Version: 0
        .... 00.. = Type: Management frame (0)
        1000 .... = Subtype: 8
        Flags: 0x00
            .... ..00 = DS status: Not leaving DS or network is operating in AD-HOC mode (To DS: 0 From DS: 0) (0x0)
            .... .0.. = More Fragments: This is the last fragment
            .... 0... = Retry: Frame is not being retransmitted
            ...0 .... = PWR MGT: STA will stay up
            ..0. .... = More Data: No data buffered
            .0.. .... = Protected flag: Data is not protected
            0... .... = Order flag: Not strictly ordered
    .000 0000 0000 0000 = Duration: 0 microseconds
    Receiver address: Broadcast (ff:ff:ff:ff:ff:ff)
    Destination address: Broadcast (ff:ff:ff:ff:ff:ff)
    Transmitter address: Espressi_0d:83:09 (3c:71:bf:0d:83:09)
    Source address: Espressi_0d:83:09 (3c:71:bf:0d:83:09)
    BSS Id: Espressi_0d:83:09 (3c:71:bf:0d:83:09)
    .... .... .... 0000 = Fragment number: 0
    0000 0000 0001 .... = Sequence number: 1
    Frame check sequence: 0x10b2d2a1 [correct]
    [FCS Status: Good]
IEEE 802.11 wireless LAN
    Fixed parameters (12 bytes)
        Timestamp: 0x0000000000019cdb
        Beacon Interval: 0,102400 [Seconds]
        Capabilities Information: 0x0421
            .... .... .... ...1 = ESS capabilities: Transmitter is an AP
            .... .... .... ..0. = IBSS status: Transmitter belongs to a BSS
            .... ..0. .... 00.. = CFP participation capabilities: No point coordinator at AP (0x00)
            .... .... ...0 .... = Privacy: AP/STA cannot support WEP
            .... .... ..1. .... = Short Preamble: Allowed
            .... .... .0.. .... = PBCC: Not Allowed
            .... .... 0... .... = Channel Agility: Not in use
            .... ...0 .... .... = Spectrum Management: Not Implemented
            .... .1.. .... .... = Short Slot Time: In use
            .... 0... .... .... = Automatic Power Save Delivery: Not Implemented
            ...0 .... .... .... = Radio Measurement: Not Implemented
            ..0. .... .... .... = DSSS-OFDM: Not Allowed
            .0.. .... .... .... = Delayed Block Ack: Not Implemented
            0... .... .... .... = Immediate Block Ack: Not Implemented
    Tagged parameters (235 bytes)
        Tag: SSID parameter set: Wildcard SSID
            Tag Number: SSID parameter set (0)
            Tag length: 0
            SSID: 
        Tag: Supported Rates 5.5(B), 11(B), 1(B), 2(B), 6, 12, 24, 48, [Mbit/sec]
            Tag Number: Supported Rates (1)
            Tag length: 8
            Supported Rates: 5.5(B) (0x8b)
            Supported Rates: 11(B) (0x96)
            Supported Rates: 1(B) (0x82)
            Supported Rates: 2(B) (0x84)
            Supported Rates: 6 (0x0c)
            Supported Rates: 12 (0x18)
            Supported Rates: 24 (0x30)
            Supported Rates: 48 (0x60)
        Tag: DS Parameter set: Current Channel: 7
            Tag Number: DS Parameter set (3)
            Tag length: 1
            Current Channel: 7
        Tag: Traffic Indication Map (TIM): DTIM 1 of 0 bitmap
            Tag Number: Traffic Indication Map (TIM) (5)
            Tag length: 5
            DTIM count: 1
            DTIM period: 2
            Bitmap control: 0x00
                .... ...0 = Multicast: False
                0000 000. = Bitmap Offset: 0x00
            Partial Virtual Bitmap: 0000
        Tag: Country Information: Country Code CN, Environment Unknown (0x00)
            Tag Number: Country Information (7)
            Tag length: 6
            Code: CN
            Environment: Unknown (0x00)
            Country Info: First Channel Number: 1, Number of Channels: 13, Maximum Transmit Power Level: 20 dBm
                First Channel Number: 1
                Number of Channels: 13
                Maximum Transmit Power Level: 20dBm
        Tag: ERP Information
            Tag Number: ERP Information (42)
            Tag length: 1
            ERP Information: 0x00
                .... ...0 = Non ERP Present: Not set
                .... ..0. = Use Protection: Not set
                .... .0.. = Barker Preamble Mode: Not set
                0000 0... = Reserved: 0x00
        Tag: Extended Supported Rates 54, 9, 18, 36, [Mbit/sec]
            Tag Number: Extended Supported Rates (50)
            Tag length: 4
            Extended Supported Rates: 54 (0x6c)
            Extended Supported Rates: 9 (0x12)
            Extended Supported Rates: 18 (0x24)
            Extended Supported Rates: 36 (0x48)
        Tag: HT Capabilities (802.11n D1.10)
            Tag Number: HT Capabilities (802.11n D1.10) (45)
            Tag length: 26
            HT Capabilities Info: 0x116e
                .... .... .... ...0 = HT LDPC coding capability: Transmitter does not support receiving LDPC coded packets
                .... .... .... ..1. = HT Support channel width: Transmitter supports 20MHz and 40MHz operation
                .... .... .... 11.. = HT SM Power Save: SM Power Save disabled (0x3)
                .... .... ...0 .... = HT Green Field: Transmitter is not able to receive PPDUs with Green Field (GF) preamble
                .... .... ..1. .... = HT Short GI for 20MHz: Supported
                .... .... .1.. .... = HT Short GI for 40MHz: Supported
                .... .... 0... .... = HT Tx STBC: Not supported
                .... ..01 .... .... = HT Rx STBC: Rx support of one spatial stream (0x1)
                .... .0.. .... .... = HT Delayed Block ACK: Transmitter does not support HT-Delayed BlockAck
                .... 0... .... .... = HT Max A-MSDU length: 3839 bytes
                ...1 .... .... .... = HT DSSS/CCK mode in 40MHz: Will/Can use DSSS/CCK in 40 MHz
                ..0. .... .... .... = HT PSMP Support: Won't/Can't support PSMP operation
                .0.. .... .... .... = HT Forty MHz Intolerant: Use of 40 MHz transmissions unrestricted/allowed
                0... .... .... .... = HT L-SIG TXOP Protection support: Not supported
            A-MPDU Parameters: 0x00
                .... ..00 = Maximum Rx A-MPDU Length: 0x0 (8191[Bytes])
                ...0 00.. = MPDU Density: no restriction (0x0)
                000. .... = Reserved: 0x0
            Rx Supported Modulation and Coding Scheme Set: MCS Set
                Rx Modulation and Coding Scheme (One bit per modulation): 1 spatial stream
                    .... .... .... .... .... .... 1111 1111 = Rx Bitmask Bits 0-7: 0xff
                    .... .... .... .... 0000 0000 .... .... = Rx Bitmask Bits 8-15: 0x00
                    .... .... 0000 0000 .... .... .... .... = Rx Bitmask Bits 16-23: 0x00
                    0000 0000 .... .... .... .... .... .... = Rx Bitmask Bits 24-31: 0x00
                    .... .... .... .... .... .... .... ...0 = Rx Bitmask Bit 32: 0x0
                    .... .... .... .... .... .... .000 000. = Rx Bitmask Bits 33-38: 0x00
                    .... .... ...0 0000 0000 0000 0... .... = Rx Bitmask Bits 39-52: 0x0000
                    ...0 0000 0000 0000 0000 0000 000. .... = Rx Bitmask Bits 53-76: 0x000000
                .... ..00 0000 0000 = Highest Supported Data Rate: 0x000
                .... .... .... ...1 = Tx Supported MCS Set: Defined
                .... .... .... ..0. = Tx and Rx MCS Set: Equal
                .... .... .... 00.. = Maximum Number of Tx Spatial Streams Supported: 0x0, 1 spatial stream
                .... .... ...0 .... = Unequal Modulation: Not supported
            HT Extended Capabilities: 0x0000
                .... .... .... ...0 = Transmitter supports PCO: Not supported
                .... .... .... .00. = Time needed to transition between 20MHz and 40MHz: No Transition (0x0)
                .... ..00 .... .... = MCS Feedback capability: STA does not provide MCS feedback (0x0)
                .... .0.. .... .... = High Throughput: Not supported
                .... 0... .... .... = Reverse Direction Responder: Not supported
            Transmit Beam Forming (TxBF) Capabilities: 0x00000000
                .... .... .... .... .... .... .... ...0 = Transmit Beamforming: Not supported
                .... .... .... .... .... .... .... ..0. = Receive Staggered Sounding: Not supported
                .... .... .... .... .... .... .... .0.. = Transmit Staggered Sounding: Not supported
                .... .... .... .... .... .... .... 0... = Receive Null Data packet (NDP): Not supported
                .... .... .... .... .... .... ...0 .... = Transmit Null Data packet (NDP): Not supported
                .... .... .... .... .... .... ..0. .... = Implicit TxBF capable: Not supported
                .... .... .... .... .... .... 00.. .... = Calibration: incapable (0x0)
                .... .... .... .... .... ...0 .... .... = STA can apply TxBF using CSI explicit feedback: Not supported
                .... .... .... .... .... ..0. .... .... = STA can apply TxBF using uncompressed beamforming feedback matrix: Not supported
                .... .... .... .... .... .0.. .... .... = STA can apply TxBF using compressed beamforming feedback matrix: Not supported
                .... .... .... .... ...0 0... .... .... = Receiver can return explicit CSI feedback: not supported (0x0)
                .... .... .... .... .00. .... .... .... = Receiver can return explicit uncompressed Beamforming Feedback Matrix: not supported (0x0)
                .... .... .... ...0 0... .... .... .... = STA can compress and use compressed Beamforming Feedback Matrix: not supported (0x0)
                .... .... .... .00. .... .... .... .... = Minimal grouping used for explicit feedback reports: No grouping supported (0x0)
                .... .... ...0 0... .... .... .... .... = Max antennae STA can support when CSI feedback required: 1 TX antenna sounding (0x0)
                .... .... .00. .... .... .... .... .... = Max antennae STA can support when uncompressed Beamforming feedback required: 1 TX antenna sounding (0x0)
                .... ...0 0... .... .... .... .... .... = Max antennae STA can support when compressed Beamforming feedback required: 1 TX antenna sounding (0x0)
                .... .00. .... .... .... .... .... .... = Maximum number of rows of CSI explicit feedback: 1 row of CSI (0x0)
                ...0 0... .... .... .... .... .... .... = Maximum number of space time streams for which channel dimensions can be simultaneously estimated: 1 space time stream (0x0)
                000. .... .... .... .... .... .... .... = Reserved: 0x0
            Antenna Selection (ASEL) Capabilities: 0x00
                .... ...0 = Antenna Selection Capable: Not supported
                .... ..0. = Explicit CSI Feedback Based Tx ASEL: Not supported
                .... .0.. = Antenna Indices Feedback Based Tx ASEL: Not supported
                .... 0... = Explicit CSI Feedback: Not supported
                ...0 .... = Antenna Indices Feedback: Not supported
                ..0. .... = Rx ASEL: Not supported
                .0.. .... = Tx Sounding PPDUs: Not supported
                0... .... = Reserved: 0x0
        Tag: HT Information (802.11n D1.10)
            Tag Number: HT Information (802.11n D1.10) (61)
            Tag length: 22
            Primary Channel: 7
            HT Information Subset (1 of 3): 0x05
                .... ..01 = Secondary channel offset: Secondary channel is above the primary channel (0x1)
                .... .1.. = Supported channel width: Channel of any width supported
                .... 0... = Reduced Interframe Spacing (RIFS): Prohibited
                ...0 .... = Power Save Multi-Poll (PSMP) stations only: Association requests are accepted regardless of PSMP capability
                000. .... = Shortest service interval: 5 ms (0x0)
            HT Information Subset (2 of 3): 0x0000
                .... .... .... ..00 = Operating mode of BSS: All STAs are - 20/40 MHz HT or in a 20/40 MHz BSS or are 20 MHz HT in a 20 MHz BSS (0x0)
                .... .... .... .0.. = Non-greenfield STAs present: All associated STAs are greenfield capable
                .... .... .... 0... = Transmit burst limit: No limit
                .... .... ...0 .... = OBSS non-HT STAs present: Use of protection for non-HT STAs by overlapping BSSs is not needed
                0000 0000 000. .... = Reserved: 0x000
            HT Information Subset (3 of 3): 0x0000
                .... .... ..00 0000 = Reserved: 0x00
                .... .... .0.. .... = Dual beacon: No second beacon is transmitted
                .... .... 0... .... = Dual Clear To Send (CTS) protection: Not required
                .... ...0 .... .... = Beacon ID: Primary beacon
                .... ..0. .... .... = L-SIG TXOP Protection Full Support: One or more HT STAs in the BSS do not support L-SIG TXOP protection
                .... .0.. .... .... = Phased Coexistence Operation (PCO): Inactive
                .... 0... .... .... = Phased Coexistence Operation (PCO) Phase: Switch to or continue 20 MHz phase
                0000 .... .... .... = Reserved: 0x0
            Rx Supported Modulation and Coding Scheme Set: Basic MCS Set
                Rx Modulation and Coding Scheme (One bit per modulation): Reserved:8
                    .... .... .... .... .... .... 0000 0000 = Rx Bitmask Bits 0-7: 0x00
                    .... .... .... .... 0000 0000 .... .... = Rx Bitmask Bits 8-15: 0x00
                    .... .... 0000 0000 .... .... .... .... = Rx Bitmask Bits 16-23: 0x00
                    0000 0000 .... .... .... .... .... .... = Rx Bitmask Bits 24-31: 0x00
                    .... .... .... .... .... .... .... ...0 = Rx Bitmask Bit 32: 0x0
                    .... .... .... .... .... .... .000 000. = Rx Bitmask Bits 33-38: 0x00
                    .... .... ...0 0000 0000 0000 0... .... = Rx Bitmask Bits 39-52: 0x0000
                    ...0 0000 0000 0000 0000 0000 000. .... = Rx Bitmask Bits 53-76: 0x000000
                .... ..00 0000 0000 = Highest Supported Data Rate: 0x000
                .... .... .... ...0 = Tx Supported MCS Set: Not defined
                .... .... .... ..0. = Tx and Rx MCS Set: Equal
                .... .... .... 00.. = Maximum Number of Tx Spatial Streams Supported: 0x0, TX MCS Set Not Defined
                .... .... ...0 .... = Unequal Modulation: Not supported
        Tag: Vendor Specific: Microsoft Corp.: WMM/WME: Parameter Element
            Tag Number: Vendor Specific (221)
            Tag length: 24
            OUI: 00:50:f2 (Microsoft Corp.)
            Vendor Specific OUI Type: 2
            Type: WMM/WME (0x02)
            WME Subtype: Parameter Element (1)
            WME Version: 1
            WME QoS Info: 0x04
                0... .... = U-APSD: Disabled
                .... 0100 = Parameter Set Count: 0x4
                .000 .... = Reserved: 0x0
            Reserved: 00
            Ac Parameters ACI 0 (Best Effort), ACM no, AIFSN 3, ECWmin/max 4/10 (CWmin/max 15/1023), TXOP 0
                ACI / AIFSN Field: 0x03
                    .00. .... = ACI: Best Effort (0)
                    ...0 .... = Admission Control Mandatory: No
                    .... 0011 = AIFSN: 3
                    0... .... = Reserved: 0
                ECW: 0xa4
                    1010 .... = ECW Max: 10
                    .... 0100 = ECW Min: 4
                    CW Max: 1023
                    CW Min: 15
                TXOP Limit: 0
            Ac Parameters ACI 1 (Background), ACM no, AIFSN 7, ECWmin/max 4/10 (CWmin/max 15/1023), TXOP 0
                ACI / AIFSN Field: 0x27
                    .01. .... = ACI: Background (1)
                    ...0 .... = Admission Control Mandatory: No
                    .... 0111 = AIFSN: 7
                    0... .... = Reserved: 0
                ECW: 0xa4
                    1010 .... = ECW Max: 10
                    .... 0100 = ECW Min: 4
                    CW Max: 1023
                    CW Min: 15
                TXOP Limit: 0
            Ac Parameters ACI 2 (Video), ACM no, AIFSN 2, ECWmin/max 3/4 (CWmin/max 7/15), TXOP 94
                ACI / AIFSN Field: 0x42
                    .10. .... = ACI: Video (2)
                    ...0 .... = Admission Control Mandatory: No
                    .... 0010 = AIFSN: 2
                    0... .... = Reserved: 0
                ECW: 0x43
                    0100 .... = ECW Max: 4
                    .... 0011 = ECW Min: 3
                    CW Max: 15
                    CW Min: 7
                TXOP Limit: 94
            Ac Parameters ACI 3 (Voice), ACM no, AIFSN 2, ECWmin/max 2/3 (CWmin/max 3/7), TXOP 47
                ACI / AIFSN Field: 0x62
                    .11. .... = ACI: Voice (3)
                    ...0 .... = Admission Control Mandatory: No
                    .... 0010 = AIFSN: 2
                    0... .... = Reserved: 0
                ECW: 0x32
                    0011 .... = ECW Max: 3
                    .... 0010 = ECW Min: 2
                    CW Max: 7
                    CW Min: 3
                TXOP Limit: 47
        Tag: Vendor Specific: Espressif Inc.
            Tag Number: Vendor Specific (221)
            Tag length: 69
            OUI: 18:fe:34 (Espressif Inc.)
            Vendor Specific OUI Type: 1
            Vendor Specific Data: 010200777777777777190004000000000000000000000088...
        Tag: Vendor Specific: Espressif Inc.
            Tag Number: Vendor Specific (221)
            Tag length: 22
            OUI: 18:fe:34 (Espressif Inc.)
            Vendor Specific OUI Type: 6
            Vendor Specific Data: 0602000b4553504d5f304438333038cd20f923
        Tag: Vendor Specific: Espressif Inc.
            Tag Number: Vendor Specific (221)
            Tag length: 21
            OUI: 18:fe:34 (Espressif Inc.)
            Vendor Specific OUI Type: 12
            Vendor Specific Data: 0c020000000000006defa84d995c80b0d2d3

0000  00 00 1a 00 2f 48 00 00 27 b3 bb 07 00 00 00 00   ..../H..'.......
0010  10 02 8a 09 a0 00 de 00 00 00 80 00 00 00 ff ff   ................
0020  ff ff ff ff 3c 71 bf 0d 83 09 3c 71 bf 0d 83 09   ....<q....<q....
0030  10 00 db 9c 01 00 00 00 00 00 64 00 21 04 00 00   ..........d.!...
0040  01 08 8b 96 82 84 0c 18 30 60 03 01 07 05 05 01   ........0`......
0050  02 00 00 00 07 06 43 4e 00 01 0d 14 2a 01 00 32   ......CN....*..2
0060  04 6c 12 24 48 2d 1a 6e 11 00 ff 00 00 00 00 00   .l.$H-.n........
0070  00 00 00 00 00 00 01 00 00 00 00 00 00 00 00 00   ................
0080  00 3d 16 07 05 00 00 00 00 00 00 00 00 00 00 00   .=..............
0090  00 00 00 00 00 00 00 00 00 dd 18 00 50 f2 02 01   ............P...
00a0  01 04 00 03 a4 00 00 27 a4 00 00 42 43 5e 00 62   .......'...BC^.b
00b0  32 2f 00 dd 45 18 fe 34 01 02 00 77 77 77 77 77   2/..E..4...wwwww
00c0  77 19 00 04 00 00 00 00 00 00 00 00 00 00 00 88   w...............
00d0  88 00 00 00 00 00 00 00 88 00 00 00 00 00 00 88   ................
00e0  00 00 00 00 00 00 00 00 00 00 00 00 00 00 00 0a   ................
00f0  00 00 00 0f 00 00 5f 8a d2 40 dd 16 18 fe 34 06   ......_..@....4.
0100  02 00 0b 45 53 50 4d 5f 30 44 38 33 30 38 cd 20   ...ESPM_0D8308. 
0110  f9 23 dd 15 18 fe 34 0c 02 00 00 00 00 00 00 6d   .#....4........m
0120  ef a8 4d 99 5c 80 b0 d2 d3 a1 d2 b2 10            ..M.\........
-----
IEEE 802.11 Beacon frame, Flags: ........C
    Type/Subtype: Beacon frame (0x0008)
    Frame Control Field: 0x8000
        .... ..00 = Version: 0
        .... 00.. = Type: Management frame (0)
        1000 .... = Subtype: 8
    Receiver address: Broadcast (ff:ff:ff:ff:ff:ff)
    Destination address: Broadcast (ff:ff:ff:ff:ff:ff)
    Transmitter address: Espressi_0d:83:09 (3c:71:bf:0d:83:09)
    Source address: Espressi_0d:83:09 (3c:71:bf:0d:83:09)
    BSS Id: Espressi_0d:83:09 (3c:71:bf:0d:83:09)
IEEE 802.11 wireless LAN
    Tagged parameters (235 bytes)
        Tag: Vendor Specific: Espressif Inc.
            Tag Number: Vendor Specific (221)
            Tag length: 69
            OUI: 18:fe:34 (Espressif Inc.)
            Vendor Specific OUI Type: 1
            Vendor Specific Data: 010200777777777777190004000000000000
                000000000088880000000000000088000000000000880000000000
                000000000000000000000a0000000f00005f8ad240
        Tag: Vendor Specific: Espressif Inc.
            Tag Number: Vendor Specific (221)
            Tag length: 22
            OUI: 18:fe:34 (Espressif Inc.)
            Vendor Specific OUI Type: 6
            Vendor Specific Data: 0602000b4553504d5f304438333038cd20f923
        Tag: Vendor Specific: Espressif Inc.
            Tag Number: Vendor Specific (221)
            Tag length: 21
            OUI: 18:fe:34 (Espressif Inc.)
            Vendor Specific OUI Type: 12
            Vendor Specific Data: 0c020000000000006defa84d995c80b0d2d3