No.     Time           Source                Destination           Protocol Length Info
      4 0.118285665    Espressi_0d:7e:1d     Espressi_0d:7e:18     LLC      92     U, func=UI; SNAP, OUI 0x18FE34 (Espressif Inc.), PID 0xEEEE

Frame 4: 92 bytes on wire (736 bits), 92 bytes captured (736 bits) on interface 0
    Interface id: 0 (mon2)
    Encapsulation type: IEEE 802.11 plus radiotap radio header (23)
    Arrival Time: Apr  5, 2020 11:04:51.109296437 CEST
    [Time shift for this packet: 0.000000000 seconds]
    Epoch Time: 1586077491.109296437 seconds
    [Time delta from previous captured frame: 0.016033247 seconds]
    [Time delta from previous displayed frame: 0.000000000 seconds]
    [Time since reference or first frame: 0.118285665 seconds]
    Frame Number: 4
    Frame Length: 92 bytes (736 bits)
    Capture Length: 92 bytes (736 bits)
    [Frame is marked: False]
    [Frame is ignored: False]
    [Protocols in frame: radiotap:wlan_radio:wlan:llc:data]
Radiotap Header v0, Length 26
802.11 radio information
IEEE 802.11 QoS Data, Flags: ......F.C
Logical-Link Control
Data (28 bytes)
    Data: 01071c00318500003c71bf0d7e183c71bf0d7e1c05000000...
    [Length: 28]

0000  00 00 1a 00 2f 48 00 00 05 6e 95 a1 00 00 00 00   ..../H...n......
0010  10 04 8a 09 a0 00 ce 00 00 00 88 02 a2 00 3c 71   ..............<q
0020  bf 0d 7e 18 3c 71 bf 0d 7e 1d 3c 71 bf 0d 7e 1d   ..~.<q..~.<q..~.
0030  40 00 00 00 aa aa 03 18 fe 34 ee ee 01 07 1c 00   @........4......
0040  31 85 00 00 3c 71 bf 0d 7e 18 3c 71 bf 0d 7e 1c   1...<q..~.<q..~.
0050  05 00 00 00 08 00 00 00 19 0e 64 5d               ..........d]

No.     Time           Source                Destination           Protocol Length Info
      5 0.118460696                          Espressi_0d:7e:1d (3c:71:bf:0d:7e:1d) (RA) 802.11   40     Acknowledgement, Flags=........C

Frame 5: 40 bytes on wire (320 bits), 40 bytes captured (320 bits) on interface 0
    Interface id: 0 (mon2)
    Encapsulation type: IEEE 802.11 plus radiotap radio header (23)
    Arrival Time: Apr  5, 2020 11:04:51.109471468 CEST
    [Time shift for this packet: 0.000000000 seconds]
    Epoch Time: 1586077491.109471468 seconds
    [Time delta from previous captured frame: 0.000175031 seconds]
    [Time delta from previous displayed frame: 0.000175031 seconds]
    [Time since reference or first frame: 0.118460696 seconds]
    Frame Number: 5
    Frame Length: 40 bytes (320 bits)
    Capture Length: 40 bytes (320 bits)
    [Frame is marked: False]
    [Frame is ignored: False]
    [Protocols in frame: radiotap:wlan_radio:wlan]
Radiotap Header v0, Length 26
802.11 radio information
IEEE 802.11 Acknowledgement, Flags: ........C

0000  00 00 1a 00 2f 48 00 00 7e 6f 95 a1 00 00 00 00   ..../H..~o......
0010  10 04 8a 09 a0 00 e0 00 00 00 d4 00 00 00 3c 71   ..............<q
0020  bf 0d 7e 1d d2 bc 09 9d                           ..~.....

No.     Time           Source                Destination           Protocol Length Info
      6 0.165114606                          Espressi_0d:7e:18 (3c:71:bf:0d:7e:18) (RA) 802.11   40     Acknowledgement, Flags=........C

Frame 6: 40 bytes on wire (320 bits), 40 bytes captured (320 bits) on interface 0
    Interface id: 0 (mon2)
    Encapsulation type: IEEE 802.11 plus radiotap radio header (23)
    Arrival Time: Apr  5, 2020 11:04:51.156125378 CEST
    [Time shift for this packet: 0.000000000 seconds]
    Epoch Time: 1586077491.156125378 seconds
    [Time delta from previous captured frame: 0.046653910 seconds]
    [Time delta from previous displayed frame: 0.046653910 seconds]
    [Time since reference or first frame: 0.165114606 seconds]
    Frame Number: 6
    Frame Length: 40 bytes (320 bits)
    Capture Length: 40 bytes (320 bits)
    [Frame is marked: False]
    [Frame is ignored: False]
    [Protocols in frame: radiotap:wlan_radio:wlan]
Radiotap Header v0, Length 26
802.11 radio information
IEEE 802.11 Acknowledgement, Flags: ........C

0000  00 00 1a 00 2f 48 00 00 c6 25 96 a1 00 00 00 00   ..../H...%......
0010  10 0c 8a 09 c0 00 ce 00 00 00 d4 00 00 00 3c 71   ..............<q
0020  bf 0d 7e 18 5d 48 63 ed                           ..~.]Hc.

No.     Time           Source                Destination           Protocol Length Info
      7 0.199948435    Espressi_0d:7e:19     Broadcast             802.11   301    Beacon frame, SN=71, FN=0, Flags=........C, BI=300, SSID=Wildcard (Broadcast)

Frame 7: 301 bytes on wire (2408 bits), 301 bytes captured (2408 bits) on interface 0
    Interface id: 0 (mon2)
    Encapsulation type: IEEE 802.11 plus radiotap radio header (23)
    Arrival Time: Apr  5, 2020 11:04:51.190959207 CEST
    [Time shift for this packet: 0.000000000 seconds]
    Epoch Time: 1586077491.190959207 seconds
    [Time delta from previous captured frame: 0.034833829 seconds]
    [Time delta from previous displayed frame: 0.034833829 seconds]
    [Time since reference or first frame: 0.199948435 seconds]
    Frame Number: 7
    Frame Length: 301 bytes (2408 bits)
    Capture Length: 301 bytes (2408 bits)
    [Frame is marked: False]
    [Frame is ignored: False]
    [Protocols in frame: radiotap:wlan_radio:wlan]
Radiotap Header v0, Length 26
802.11 radio information
IEEE 802.11 Beacon frame, Flags: ........C
IEEE 802.11 wireless LAN

0000  00 00 1a 00 2f 48 00 00 3e a5 96 a1 00 00 00 00   ..../H..>.......
0010  10 02 8a 09 a0 00 e0 00 00 00 80 00 00 00 ff ff   ................
0020  ff ff ff ff 3c 71 bf 0d 7e 19 3c 71 bf 0d 7e 19   ....<q..~.<q..~.
0030  70 04 b5 a8 f3 da 00 00 00 00 2c 01 21 04 00 00   p.........,.!...
0040  01 08 8b 96 82 84 0c 18 30 60 03 01 07 05 05 01   ........0`......
0050  02 00 00 00 07 06 55 53 20 01 0b 1e 2a 01 00 32   ......US ...*..2
0060  04 6c 12 24 48 2d 1a 6e 11 00 ff 00 00 00 00 00   .l.$H-.n........
0070  00 00 00 00 00 00 01 00 00 00 00 00 00 00 00 00   ................
0080  00 3d 16 07 05 00 00 00 00 00 00 00 00 00 00 00   .=..............
0090  00 00 00 00 00 00 00 00 00 dd 18 00 50 f2 02 01   ............P...
00a0  01 04 00 03 a4 00 00 27 a4 00 00 42 43 5e 00 62   .......'...BC^.b
00b0  32 2f 00 dd 45 18 fe 34 01 02 02 77 77 77 77 77   2/..E..4...wwwww
00c0  77 17 02 06 00 00 00 02 00 01 00 01 00 01 00 cf   w...............
00d0  c3 04 3c 71 bf 0d 7e 1d cf 00 00 00 00 00 00 88   ..<q..~.........
00e0  00 00 00 00 00 00 00 00 00 00 00 00 00 00 00 0a   ................
00f0  00 00 00 0f 00 00 56 e0 8d a9 dd 16 18 fe 34 06   ......V.......4.
0100  02 00 0b 45 53 50 4d 5f 30 44 37 45 31 38 38 15   ...ESPM_0D7E188.
0110  fd 32 dd 15 18 fe 34 0c 02 b8 27 eb 22 ef da 00   .2....4...'."...
0120  43 54 f9 8e 8c 29 f5 db b4 da 61 e4 37            CT...)....a.7

No.     Time           Source                Destination           Protocol Length Info
      8 0.203722779    Espressi_0d:7e:1d     Broadcast             802.11   301    Beacon frame, SN=56, FN=0, Flags=........C, BI=300, SSID=Wildcard (Broadcast)

Frame 8: 301 bytes on wire (2408 bits), 301 bytes captured (2408 bits) on interface 0
    Interface id: 0 (mon2)
    Encapsulation type: IEEE 802.11 plus radiotap radio header (23)
    Arrival Time: Apr  5, 2020 11:04:51.194733551 CEST
    [Time shift for this packet: 0.000000000 seconds]
    Epoch Time: 1586077491.194733551 seconds
    [Time delta from previous captured frame: 0.003774344 seconds]
    [Time delta from previous displayed frame: 0.003774344 seconds]
    [Time since reference or first frame: 0.203722779 seconds]
    Frame Number: 8
    Frame Length: 301 bytes (2408 bits)
    Capture Length: 301 bytes (2408 bits)
    [Frame is marked: False]
    [Frame is ignored: False]
    [Protocols in frame: radiotap:wlan_radio:wlan]
Radiotap Header v0, Length 26
802.11 radio information
IEEE 802.11 Beacon frame, Flags: ........C
IEEE 802.11 wireless LAN

0000  00 00 1a 00 2f 48 00 00 09 b4 96 a1 00 00 00 00   ..../H..........
0010  10 02 8a 09 a0 00 cc 00 00 00 80 00 00 00 ff ff   ................
0020  ff ff ff ff 3c 71 bf 0d 7e 1d 3c 71 bf 0d 7e 1d   ....<q..~.<q..~.
0030  80 03 57 c6 f3 da 00 00 00 00 2c 01 21 04 00 00   ..W.......,.!...
0040  01 08 8b 96 82 84 0c 18 30 60 03 01 07 05 05 01   ........0`......
0050  02 00 00 00 07 06 55 53 20 01 0b 1e 2a 01 00 32   ......US ...*..2
0060  04 6c 12 24 48 2d 1a 6e 11 00 ff 00 00 00 00 00   .l.$H-.n........
0070  00 00 00 00 00 00 01 00 00 00 00 00 00 00 00 00   ................
0080  00 3d 16 07 05 00 00 00 00 00 00 00 00 00 00 00   .=..............
0090  00 00 00 00 00 00 00 00 00 dd 18 00 50 f2 02 01   ............P...
00a0  01 04 00 03 a4 00 00 27 a4 00 00 42 43 5e 00 62   .......'...BC^.b
00b0  32 2f 00 dd 45 18 fe 34 01 02 01 77 77 77 77 77   2/..E..4...wwwww
00c0  77 18 01 06 01 00 00 02 00 02 00 00 00 01 00 cb   w...............
00d0  cf 04 3c 71 bf 0d 7e 1d cf 00 00 00 00 00 00 88   ..<q..~.........
00e0  00 00 00 00 00 00 00 00 00 00 00 00 00 00 00 0a   ................
00f0  00 00 00 0f 00 00 3a 56 ed 85 dd 16 18 fe 34 06   ......:V......4.
0100  02 00 0b 45 53 50 4d 5f 30 44 37 45 31 43 8c bd   ...ESPM_0D7E1C..
0110  2a f5 dd 15 18 fe 34 0c 02 b8 27 eb 22 ef da 33   *.....4...'."..3
0120  67 0a 24 ac 2d 42 02 94 aa 49 fd 9d c5            g.$.-B...I...

No.     Time           Source                Destination           Protocol Length Info
     13 0.508844500    Espressi_0d:7e:19     Broadcast             802.11   301    Beacon frame, SN=72, FN=0, Flags=........C, BI=300, SSID=Wildcard (Broadcast)

Frame 13: 301 bytes on wire (2408 bits), 301 bytes captured (2408 bits) on interface 0
    Interface id: 0 (mon2)
    Encapsulation type: IEEE 802.11 plus radiotap radio header (23)
    Arrival Time: Apr  5, 2020 11:04:51.499855272 CEST
    [Time shift for this packet: 0.000000000 seconds]
    Epoch Time: 1586077491.499855272 seconds
    [Time delta from previous captured frame: 0.063417253 seconds]
    [Time delta from previous displayed frame: 0.305121721 seconds]
    [Time since reference or first frame: 0.508844500 seconds]
    Frame Number: 13
    Frame Length: 301 bytes (2408 bits)
    Capture Length: 301 bytes (2408 bits)
    [Frame is marked: False]
    [Frame is ignored: False]
    [Protocols in frame: radiotap:wlan_radio:wlan]
Radiotap Header v0, Length 26
802.11 radio information
IEEE 802.11 Beacon frame, Flags: ........C
IEEE 802.11 wireless LAN

0000  00 00 1a 00 2f 48 00 00 f9 5b 9b a1 00 00 00 00   ..../H...[......
0010  10 02 8a 09 a0 00 e0 00 00 00 80 00 00 00 ff ff   ................
0020  ff ff ff ff 3c 71 bf 0d 7e 19 3c 71 bf 0d 7e 19   ....<q..~.<q..~.
0030  80 04 71 5f f8 da 00 00 00 00 2c 01 21 04 00 00   ..q_......,.!...
0040  01 08 8b 96 82 84 0c 18 30 60 03 01 07 05 05 01   ........0`......
0050  02 00 00 00 07 06 55 53 20 01 0b 1e 2a 01 00 32   ......US ...*..2
0060  04 6c 12 24 48 2d 1a 6e 11 00 ff 00 00 00 00 00   .l.$H-.n........
0070  00 00 00 00 00 00 01 00 00 00 00 00 00 00 00 00   ................
0080  00 3d 16 07 05 00 00 00 00 00 00 00 00 00 00 00   .=..............
0090  00 00 00 00 00 00 00 00 00 dd 18 00 50 f2 02 01   ............P...
00a0  01 04 00 03 a4 00 00 27 a4 00 00 42 43 5e 00 62   .......'...BC^.b
00b0  32 2f 00 dd 45 18 fe 34 01 02 02 77 77 77 77 77   2/..E..4...wwwww
00c0  77 17 02 06 00 00 00 02 00 01 00 01 00 01 00 cf   w...............
00d0  c3 04 3c 71 bf 0d 7e 1d cf 00 00 00 00 00 00 88   ..<q..~.........
00e0  00 00 00 00 00 00 00 00 00 00 00 00 00 00 00 0a   ................
00f0  00 00 00 0f 00 00 56 e0 8d a9 dd 16 18 fe 34 06   ......V.......4.
0100  02 00 0b 45 53 50 4d 5f 30 44 37 45 31 38 38 15   ...ESPM_0D7E188.
0110  fd 32 dd 15 18 fe 34 0c 02 b8 27 eb 22 ef da 5e   .2....4...'."..^
0120  e4 1f 0b 97 85 16 b6 d1 58 06 f0 37 1c            ........X..7.

No.     Time           Source                Destination           Protocol Length Info
     14 0.509461129                          Espressi_0d:7e:18 (3c:71:bf:0d:7e:18) (RA) 802.11   40     Acknowledgement, Flags=........C

Frame 14: 40 bytes on wire (320 bits), 40 bytes captured (320 bits) on interface 0
    Interface id: 0 (mon2)
    Encapsulation type: IEEE 802.11 plus radiotap radio header (23)
    Arrival Time: Apr  5, 2020 11:04:51.500471901 CEST
    [Time shift for this packet: 0.000000000 seconds]
    Epoch Time: 1586077491.500471901 seconds
    [Time delta from previous captured frame: 0.000616629 seconds]
    [Time delta from previous displayed frame: 0.000616629 seconds]
    [Time since reference or first frame: 0.509461129 seconds]
    Frame Number: 14
    Frame Length: 40 bytes (320 bits)
    Capture Length: 40 bytes (320 bits)
    [Frame is marked: False]
    [Frame is ignored: False]
    [Protocols in frame: radiotap:wlan_radio:wlan]
Radiotap Header v0, Length 26
802.11 radio information
IEEE 802.11 Acknowledgement, Flags: ........C

0000  00 00 1a 00 2f 48 00 00 dd 66 9b a1 00 00 00 00   ..../H...f......
0010  10 0c 8a 09 c0 00 d0 00 00 00 d4 00 00 00 3c 71   ..............<q
0020  bf 0d 7e 18 5d 48 63 ed                           ..~.]Hc.

No.     Time           Source                Destination           Protocol Length Info
     18 0.669068390                          Espressi_0d:7e:18 (3c:71:bf:0d:7e:18) (RA) 802.11   40     Acknowledgement, Flags=........C

Frame 18: 40 bytes on wire (320 bits), 40 bytes captured (320 bits) on interface 0
    Interface id: 0 (mon2)
    Encapsulation type: IEEE 802.11 plus radiotap radio header (23)
    Arrival Time: Apr  5, 2020 11:04:51.660079162 CEST
    [Time shift for this packet: 0.000000000 seconds]
    Epoch Time: 1586077491.660079162 seconds
    [Time delta from previous captured frame: 0.054781939 seconds]
    [Time delta from previous displayed frame: 0.159607261 seconds]
    [Time since reference or first frame: 0.669068390 seconds]
    Frame Number: 18
    Frame Length: 40 bytes (320 bits)
    Capture Length: 40 bytes (320 bits)
    [Frame is marked: False]
    [Frame is ignored: False]
    [Protocols in frame: radiotap:wlan_radio:wlan]
Radiotap Header v0, Length 26
802.11 radio information
IEEE 802.11 Acknowledgement, Flags: ........C

0000  00 00 1a 00 2f 48 00 00 73 d6 9d a1 00 00 00 00   ..../H..s.......
0010  10 0c 8a 09 c0 00 d0 00 00 00 d4 00 00 00 3c 71   ..............<q
0020  bf 0d 7e 18 5d 48 63 ed                           ..~.]Hc.

No.     Time           Source                Destination           Protocol Length Info
     21 0.835100779    Espressi_0d:7e:19     Broadcast             802.11   301    Beacon frame, SN=73, FN=0, Flags=........C, BI=300, SSID=Wildcard (Broadcast)

Frame 21: 301 bytes on wire (2408 bits), 301 bytes captured (2408 bits) on interface 0
    Interface id: 0 (mon2)
    Encapsulation type: IEEE 802.11 plus radiotap radio header (23)
    Arrival Time: Apr  5, 2020 11:04:51.826111551 CEST
    [Time shift for this packet: 0.000000000 seconds]
    Epoch Time: 1586077491.826111551 seconds
    [Time delta from previous captured frame: 0.083028844 seconds]
    [Time delta from previous displayed frame: 0.166032389 seconds]
    [Time since reference or first frame: 0.835100779 seconds]
    Frame Number: 21
    Frame Length: 301 bytes (2408 bits)
    Capture Length: 301 bytes (2408 bits)
    [Frame is marked: False]
    [Frame is ignored: False]
    [Protocols in frame: radiotap:wlan_radio:wlan]
Radiotap Header v0, Length 26
802.11 radio information
IEEE 802.11 Beacon frame, Flags: ........C
IEEE 802.11 wireless LAN

0000  00 00 1a 00 2f 48 00 00 57 56 a0 a1 00 00 00 00   ..../H..WV......
0010  10 02 8a 09 a0 00 e0 00 00 00 80 00 00 00 ff ff   ................
0020  ff ff ff ff 3c 71 bf 0d 7e 19 3c 71 bf 0d 7e 19   ....<q..~.<q..~.
0030  90 04 d0 59 fd da 00 00 00 00 2c 01 21 04 00 00   ...Y......,.!...
0040  01 08 8b 96 82 84 0c 18 30 60 03 01 07 05 05 01   ........0`......
0050  02 00 00 00 07 06 55 53 20 01 0b 1e 2a 01 00 32   ......US ...*..2
0060  04 6c 12 24 48 2d 1a 6e 11 00 ff 00 00 00 00 00   .l.$H-.n........
0070  00 00 00 00 00 00 01 00 00 00 00 00 00 00 00 00   ................
0080  00 3d 16 07 05 00 00 00 00 00 00 00 00 00 00 00   .=..............
0090  00 00 00 00 00 00 00 00 00 dd 18 00 50 f2 02 01   ............P...
00a0  01 04 00 03 a4 00 00 27 a4 00 00 42 43 5e 00 62   .......'...BC^.b
00b0  32 2f 00 dd 45 18 fe 34 01 02 02 77 77 77 77 77   2/..E..4...wwwww
00c0  77 17 02 06 00 00 00 02 00 01 00 01 00 01 00 cf   w...............
00d0  c3 04 3c 71 bf 0d 7e 1d cf 00 00 00 00 00 00 88   ..<q..~.........
00e0  00 00 00 00 00 00 00 00 00 00 00 00 00 00 00 0a   ................
00f0  00 00 00 0f 00 00 56 e0 8d a9 dd 16 18 fe 34 06   ......V.......4.
0100  02 00 0b 45 53 50 4d 5f 30 44 37 45 31 38 38 15   ...ESPM_0D7E188.
0110  fd 32 dd 15 18 fe 34 0c 02 b8 27 eb 22 ef da 00   .2....4...'."...
0120  43 54 f9 8e 8c 29 f5 db b4 4f 57 4b 35            CT...)...OWK5

No.     Time           Source                Destination           Protocol Length Info
     26 1.113687559    Espressi_0d:7e:1d     Broadcast             802.11   301    Beacon frame, SN=59, FN=0, Flags=........C, BI=300, SSID=Wildcard (Broadcast)

Frame 26: 301 bytes on wire (2408 bits), 301 bytes captured (2408 bits) on interface 0
    Interface id: 0 (mon2)
    Encapsulation type: IEEE 802.11 plus radiotap radio header (23)
    Arrival Time: Apr  5, 2020 11:04:52.104698331 CEST
    [Time shift for this packet: 0.000000000 seconds]
    Epoch Time: 1586077492.104698331 seconds
    [Time delta from previous captured frame: 0.054351722 seconds]
    [Time delta from previous displayed frame: 0.278586780 seconds]
    [Time since reference or first frame: 1.113687559 seconds]
    Frame Number: 26
    Frame Length: 301 bytes (2408 bits)
    Capture Length: 301 bytes (2408 bits)
    [Frame is marked: False]
    [Frame is ignored: False]
    [Protocols in frame: radiotap:wlan_radio:wlan]
Radiotap Header v0, Length 26
802.11 radio information
IEEE 802.11 Beacon frame, Flags: ........C
IEEE 802.11 wireless LAN

0000  00 00 1a 00 2f 48 00 00 88 96 a4 a1 00 00 00 00   ..../H..........
0010  10 02 8a 09 a0 00 cc 00 00 00 80 00 00 00 ff ff   ................
0020  ff ff ff ff 3c 71 bf 0d 7e 1d 3c 71 bf 0d 7e 1d   ....<q..~.<q..~.
0030  b0 03 d6 a8 01 db 00 00 00 00 2c 01 21 04 00 00   ..........,.!...
0040  01 08 8b 96 82 84 0c 18 30 60 03 01 07 05 05 01   ........0`......
0050  02 00 00 00 07 06 55 53 20 01 0b 1e 2a 01 00 32   ......US ...*..2
0060  04 6c 12 24 48 2d 1a 6e 11 00 ff 00 00 00 00 00   .l.$H-.n........
0070  00 00 00 00 00 00 01 00 00 00 00 00 00 00 00 00   ................
0080  00 3d 16 07 05 00 00 00 00 00 00 00 00 00 00 00   .=..............
0090  00 00 00 00 00 00 00 00 00 dd 18 00 50 f2 02 01   ............P...
00a0  01 04 00 03 a4 00 00 27 a4 00 00 42 43 5e 00 62   .......'...BC^.b
00b0  32 2f 00 dd 45 18 fe 34 01 02 01 77 77 77 77 77   2/..E..4...wwwww
00c0  77 18 01 06 01 00 00 02 00 02 00 00 00 01 00 cb   w...............
00d0  cf 04 3c 71 bf 0d 7e 1d cf 00 00 00 00 00 00 88   ..<q..~.........
00e0  00 00 00 00 00 00 00 00 00 00 00 00 00 00 00 0a   ................
00f0  00 00 00 0f 00 00 3a 56 ed 85 dd 16 18 fe 34 06   ......:V......4.
0100  02 00 0b 45 53 50 4d 5f 30 44 37 45 31 43 8c bd   ...ESPM_0D7E1C..
0110  2a f5 dd 15 18 fe 34 0c 02 b8 27 eb 22 ef da 9a   *.....4...'."...
0120  ac c3 7f 9a 22 97 77 4d 78 02 5d 1f 1a            ....".wMx.]..

No.     Time           Source                Destination           Protocol Length Info
     27 1.122957521    Espressi_0d:7e:19     Broadcast             802.11   301    Beacon frame, SN=74, FN=0, Flags=........C, BI=300, SSID=Wildcard (Broadcast)

Frame 27: 301 bytes on wire (2408 bits), 301 bytes captured (2408 bits) on interface 0
    Interface id: 0 (mon2)
    Encapsulation type: IEEE 802.11 plus radiotap radio header (23)
    Arrival Time: Apr  5, 2020 11:04:52.113968293 CEST
    [Time shift for this packet: 0.000000000 seconds]
    Epoch Time: 1586077492.113968293 seconds
    [Time delta from previous captured frame: 0.009269962 seconds]
    [Time delta from previous displayed frame: 0.009269962 seconds]
    [Time since reference or first frame: 1.122957521 seconds]
    Frame Number: 27
    Frame Length: 301 bytes (2408 bits)
    Capture Length: 301 bytes (2408 bits)
    [Frame is marked: False]
    [Frame is ignored: False]
    [Protocols in frame: radiotap:wlan_radio:wlan]
Radiotap Header v0, Length 26
802.11 radio information
IEEE 802.11 Beacon frame, Flags: ........C
IEEE 802.11 wireless LAN

0000  00 00 1a 00 2f 48 00 00 d1 ba a4 a1 00 00 00 00   ..../H..........
0010  10 02 8a 09 a0 00 e0 00 00 00 80 00 00 00 ff ff   ................
0020  ff ff ff ff 3c 71 bf 0d 7e 19 3c 71 bf 0d 7e 19   ....<q..~.<q..~.
0030  a0 04 4b be 01 db 00 00 00 00 2c 01 21 04 00 00   ..K.......,.!...
0040  01 08 8b 96 82 84 0c 18 30 60 03 01 07 05 05 01   ........0`......
0050  02 00 00 00 07 06 55 53 20 01 0b 1e 2a 01 00 32   ......US ...*..2
0060  04 6c 12 24 48 2d 1a 6e 11 00 ff 00 00 00 00 00   .l.$H-.n........
0070  00 00 00 00 00 00 01 00 00 00 00 00 00 00 00 00   ................
0080  00 3d 16 07 05 00 00 00 00 00 00 00 00 00 00 00   .=..............
0090  00 00 00 00 00 00 00 00 00 dd 18 00 50 f2 02 01   ............P...
00a0  01 04 00 03 a4 00 00 27 a4 00 00 42 43 5e 00 62   .......'...BC^.b
00b0  32 2f 00 dd 45 18 fe 34 01 02 02 77 77 77 77 77   2/..E..4...wwwww
00c0  77 17 02 06 00 00 00 02 00 01 00 01 00 01 00 cf   w...............
00d0  c3 04 3c 71 bf 0d 7e 1d cf 00 00 00 00 00 00 88   ..<q..~.........
00e0  00 00 00 00 00 00 00 00 00 00 00 00 00 00 00 0a   ................
00f0  00 00 00 0f 00 00 56 e0 8d a9 dd 16 18 fe 34 06   ......V.......4.
0100  02 00 0b 45 53 50 4d 5f 30 44 37 45 31 38 38 15   ...ESPM_0D7E188.
0110  fd 32 dd 15 18 fe 34 0c 02 b8 27 eb 22 ef da 5e   .2....4...'."..^
0120  e4 1f 0b 97 85 16 b6 d1 58 9f 4c 35 56            ........X.L5V

No.     Time           Source                Destination           Protocol Length Info
     31 1.165018663                          Espressi_0d:7e:18 (3c:71:bf:0d:7e:18) (RA) 802.11   40     Acknowledgement, Flags=........C

Frame 31: 40 bytes on wire (320 bits), 40 bytes captured (320 bits) on interface 0
    Interface id: 0 (mon2)
    Encapsulation type: IEEE 802.11 plus radiotap radio header (23)
    Arrival Time: Apr  5, 2020 11:04:52.156029435 CEST
    [Time shift for this packet: 0.000000000 seconds]
    Epoch Time: 1586077492.156029435 seconds
    [Time delta from previous captured frame: 0.003305668 seconds]
    [Time delta from previous displayed frame: 0.042061142 seconds]
    [Time since reference or first frame: 1.165018663 seconds]
    Frame Number: 31
    Frame Length: 40 bytes (320 bits)
    Capture Length: 40 bytes (320 bits)
    [Frame is marked: False]
    [Frame is ignored: False]
    [Protocols in frame: radiotap:wlan_radio:wlan]
Radiotap Header v0, Length 26
802.11 radio information
IEEE 802.11 Acknowledgement, Flags: ........C

0000  00 00 1a 00 2f 48 00 00 b9 67 a5 a1 00 00 00 00   ..../H...g......
0010  10 30 8a 09 c0 00 cc 00 00 00 d4 00 00 00 3c 71   .0............<q
0020  bf 0d 7e 18 5d 48 63 ed                           ..~.]Hc.

No.     Time           Source                Destination           Protocol Length Info
     32 1.168166123    Espressi_0d:7e:1d     Espressi_0d:7e:18     LLC      92     U, func=UI; SNAP, OUI 0x18FE34 (Espressif Inc.), PID 0xEEEE

Frame 32: 92 bytes on wire (736 bits), 92 bytes captured (736 bits) on interface 0
    Interface id: 0 (mon2)
    Encapsulation type: IEEE 802.11 plus radiotap radio header (23)
    Arrival Time: Apr  5, 2020 11:04:52.159176895 CEST
    [Time shift for this packet: 0.000000000 seconds]
    Epoch Time: 1586077492.159176895 seconds
    [Time delta from previous captured frame: 0.003147460 seconds]
    [Time delta from previous displayed frame: 0.003147460 seconds]
    [Time since reference or first frame: 1.168166123 seconds]
    Frame Number: 32
    Frame Length: 92 bytes (736 bits)
    Capture Length: 92 bytes (736 bits)
    [Frame is marked: False]
    [Frame is ignored: False]
    [Protocols in frame: radiotap:wlan_radio:wlan:llc:data]
Radiotap Header v0, Length 26
802.11 radio information
IEEE 802.11 QoS Data, Flags: ......F.C
Logical-Link Control
Data (28 bytes)
    Data: 01071c00318500003c71bf0d7e183c71bf0d7e1c06000000...
    [Length: 28]

0000  00 00 1a 00 2f 48 00 00 ff 72 a5 a1 00 00 00 00   ..../H...r......
0010  10 04 8a 09 a0 00 ce 00 00 00 88 02 a2 00 3c 71   ..............<q
0020  bf 0d 7e 18 3c 71 bf 0d 7e 1d 3c 71 bf 0d 7e 1d   ..~.<q..~.<q..~.
0030  50 00 00 00 aa aa 03 18 fe 34 ee ee 01 07 1c 00   P........4......
0040  31 85 00 00 3c 71 bf 0d 7e 18 3c 71 bf 0d 7e 1c   1...<q..~.<q..~.
0050  06 00 00 00 0a 00 00 00 8f c2 05 8d               ............

No.     Time           Source                Destination           Protocol Length Info
     33 1.168293406                          Espressi_0d:7e:1d (3c:71:bf:0d:7e:1d) (RA) 802.11   40     Acknowledgement, Flags=........C

Frame 33: 40 bytes on wire (320 bits), 40 bytes captured (320 bits) on interface 0
    Interface id: 0 (mon2)
    Encapsulation type: IEEE 802.11 plus radiotap radio header (23)
    Arrival Time: Apr  5, 2020 11:04:52.159304178 CEST
    [Time shift for this packet: 0.000000000 seconds]
    Epoch Time: 1586077492.159304178 seconds
    [Time delta from previous captured frame: 0.000127283 seconds]
    [Time delta from previous displayed frame: 0.000127283 seconds]
    [Time since reference or first frame: 1.168293406 seconds]
    Frame Number: 33
    Frame Length: 40 bytes (320 bits)
    Capture Length: 40 bytes (320 bits)
    [Frame is marked: False]
    [Frame is ignored: False]
    [Protocols in frame: radiotap:wlan_radio:wlan]
Radiotap Header v0, Length 26
802.11 radio information
IEEE 802.11 Acknowledgement, Flags: ........C

0000  00 00 1a 00 2f 48 00 00 78 74 a5 a1 00 00 00 00   ..../H..xt......
0010  10 04 8a 09 a0 00 de 00 00 00 d4 00 00 00 3c 71   ..............<q
0020  bf 0d 7e 1d d2 bc 09 9d                           ..~.....

No.     Time           Source                Destination           Protocol Length Info
     37 1.356324028                          Espressi_0d:7e:18 (3c:71:bf:0d:7e:18) (RA) 802.11   40     Acknowledgement, Flags=........C

Frame 37: 40 bytes on wire (320 bits), 40 bytes captured (320 bits) on interface 0
    Interface id: 0 (mon2)
    Encapsulation type: IEEE 802.11 plus radiotap radio header (23)
    Arrival Time: Apr  5, 2020 11:04:52.347334800 CEST
    [Time shift for this packet: 0.000000000 seconds]
    Epoch Time: 1586077492.347334800 seconds
    [Time delta from previous captured frame: 0.025387400 seconds]
    [Time delta from previous displayed frame: 0.188030622 seconds]
    [Time since reference or first frame: 1.356324028 seconds]
    Frame Number: 37
    Frame Length: 40 bytes (320 bits)
    Capture Length: 40 bytes (320 bits)
    [Frame is marked: False]
    [Frame is ignored: False]
    [Protocols in frame: radiotap:wlan_radio:wlan]
Radiotap Header v0, Length 26
802.11 radio information
IEEE 802.11 Acknowledgement, Flags: ........C

0000  00 00 1a 00 2f 48 00 00 e2 52 a8 a1 00 00 00 00   ..../H...R......
0010  10 30 8a 09 c0 00 cb 00 00 00 d4 00 00 00 3c 71   .0............<q
0020  bf 0d 7e 18 5d 48 63 ed                           ..~.]Hc.

No.     Time           Source                Destination           Protocol Length Info
     39 1.420779250    Espressi_0d:7e:1d     Broadcast             802.11   301    Beacon frame, SN=60, FN=0, Flags=........C, BI=300, SSID=Wildcard (Broadcast)

Frame 39: 301 bytes on wire (2408 bits), 301 bytes captured (2408 bits) on interface 0
    Interface id: 0 (mon2)
    Encapsulation type: IEEE 802.11 plus radiotap radio header (23)
    Arrival Time: Apr  5, 2020 11:04:52.411790022 CEST
    [Time shift for this packet: 0.000000000 seconds]
    Epoch Time: 1586077492.411790022 seconds
    [Time delta from previous captured frame: 0.053804352 seconds]
    [Time delta from previous displayed frame: 0.064455222 seconds]
    [Time since reference or first frame: 1.420779250 seconds]
    Frame Number: 39
    Frame Length: 301 bytes (2408 bits)
    Capture Length: 301 bytes (2408 bits)
    [Frame is marked: False]
    [Frame is ignored: False]
    [Protocols in frame: radiotap:wlan_radio:wlan]
Radiotap Header v0, Length 26
802.11 radio information
IEEE 802.11 Beacon frame, Flags: ........C
IEEE 802.11 wireless LAN

0000  00 00 1a 00 2f 48 00 00 29 46 a9 a1 00 00 00 00   ..../H..)F......
0010  10 02 8a 09 a0 00 ce 00 00 00 80 00 00 00 ff ff   ................
0020  ff ff ff ff 3c 71 bf 0d 7e 1d 3c 71 bf 0d 7e 1d   ....<q..~.<q..~.
0030  c0 03 77 58 06 db 00 00 00 00 2c 01 21 04 00 00   ..wX......,.!...
0040  01 08 8b 96 82 84 0c 18 30 60 03 01 07 05 05 01   ........0`......
0050  02 00 00 00 07 06 55 53 20 01 0b 1e 2a 01 00 32   ......US ...*..2
0060  04 6c 12 24 48 2d 1a 6e 11 00 ff 00 00 00 00 00   .l.$H-.n........
0070  00 00 00 00 00 00 01 00 00 00 00 00 00 00 00 00   ................
0080  00 3d 16 07 05 00 00 00 00 00 00 00 00 00 00 00   .=..............
0090  00 00 00 00 00 00 00 00 00 dd 18 00 50 f2 02 01   ............P...
00a0  01 04 00 03 a4 00 00 27 a4 00 00 42 43 5e 00 62   .......'...BC^.b
00b0  32 2f 00 dd 45 18 fe 34 01 02 01 77 77 77 77 77   2/..E..4...wwwww
00c0  77 18 01 06 01 00 00 02 00 02 00 00 00 01 00 cb   w...............
00d0  d0 04 3c 71 bf 0d 7e 1d d0 00 00 00 00 00 00 88   ..<q..~.........
00e0  00 00 00 00 00 00 00 00 00 00 00 00 00 00 00 0a   ................
00f0  00 00 00 0f 00 00 d6 29 de 6c dd 16 18 fe 34 06   .......).l....4.
0100  02 00 0b 45 53 50 4d 5f 30 44 37 45 31 43 8c bd   ...ESPM_0D7E1C..
0110  2a f5 dd 15 18 fe 34 0c 02 b8 27 eb 22 ef da 33   *.....4...'."..3
0120  67 0a 24 ac 2d 42 02 94 aa f2 6f 6e 0c            g.$.-B....on.

No.     Time           Source                Destination           Protocol Length Info
     46 1.665273319                          Espressi_0d:7e:18 (3c:71:bf:0d:7e:18) (RA) 802.11   40     Acknowledgement, Flags=........C

Frame 46: 40 bytes on wire (320 bits), 40 bytes captured (320 bits) on interface 0
    Interface id: 0 (mon2)
    Encapsulation type: IEEE 802.11 plus radiotap radio header (23)
    Arrival Time: Apr  5, 2020 11:04:52.656284091 CEST
    [Time shift for this packet: 0.000000000 seconds]
    Epoch Time: 1586077492.656284091 seconds
    [Time delta from previous captured frame: 0.027339116 seconds]
    [Time delta from previous displayed frame: 0.244494069 seconds]
    [Time since reference or first frame: 1.665273319 seconds]
    Frame Number: 46
    Frame Length: 40 bytes (320 bits)
    Capture Length: 40 bytes (320 bits)
    [Frame is marked: False]
    [Frame is ignored: False]
    [Protocols in frame: radiotap:wlan_radio:wlan]
Radiotap Header v0, Length 26
802.11 radio information
IEEE 802.11 Acknowledgement, Flags: ........C

0000  00 00 1a 00 2f 48 00 00 d5 09 ad a1 00 00 00 00   ..../H..........
0010  10 30 8a 09 c0 00 cc 00 00 00 d4 00 00 00 3c 71   .0............<q
0020  bf 0d 7e 18 5d 48 63 ed                           ..~.]Hc.

No.     Time           Source                Destination           Protocol Length Info
     48 1.727773636    Espressi_0d:7e:1d     Broadcast             802.11   301    Beacon frame, SN=61, FN=0, Flags=........C, BI=300, SSID=Wildcard (Broadcast)

Frame 48: 301 bytes on wire (2408 bits), 301 bytes captured (2408 bits) on interface 0
    Interface id: 0 (mon2)
    Encapsulation type: IEEE 802.11 plus radiotap radio header (23)
    Arrival Time: Apr  5, 2020 11:04:52.718784408 CEST
    [Time shift for this packet: 0.000000000 seconds]
    Epoch Time: 1586077492.718784408 seconds
    [Time delta from previous captured frame: 0.054097335 seconds]
    [Time delta from previous displayed frame: 0.062500317 seconds]
    [Time since reference or first frame: 1.727773636 seconds]
    Frame Number: 48
    Frame Length: 301 bytes (2408 bits)
    Capture Length: 301 bytes (2408 bits)
    [Frame is marked: False]
    [Frame is ignored: False]
    [Protocols in frame: radiotap:wlan_radio:wlan]
Radiotap Header v0, Length 26
802.11 radio information
IEEE 802.11 Beacon frame, Flags: ........C
IEEE 802.11 wireless LAN

0000  00 00 1a 00 2f 48 00 00 81 f5 ad a1 00 00 00 00   ..../H..........
0010  10 02 8a 09 a0 00 cc 00 00 00 80 00 00 00 ff ff   ................
0020  ff ff ff ff 3c 71 bf 0d 7e 1d 3c 71 bf 0d 7e 1d   ....<q..~.<q..~.
0030  d0 03 cf 07 0b db 00 00 00 00 2c 01 21 04 00 00   ..........,.!...
0040  01 08 8b 96 82 84 0c 18 30 60 03 01 07 05 05 01   ........0`......
0050  02 00 00 00 07 06 55 53 20 01 0b 1e 2a 01 00 32   ......US ...*..2
0060  04 6c 12 24 48 2d 1a 6e 11 00 ff 00 00 00 00 00   .l.$H-.n........
0070  00 00 00 00 00 00 01 00 00 00 00 00 00 00 00 00   ................
0080  00 3d 16 07 05 00 00 00 00 00 00 00 00 00 00 00   .=..............
0090  00 00 00 00 00 00 00 00 00 dd 18 00 50 f2 02 01   ............P...
00a0  01 04 00 03 a4 00 00 27 a4 00 00 42 43 5e 00 62   .......'...BC^.b
00b0  32 2f 00 dd 45 18 fe 34 01 02 01 77 77 77 77 77   2/..E..4...wwwww
00c0  77 18 01 06 01 00 00 02 00 02 00 00 00 01 00 cb   w...............
00d0  cf 04 3c 71 bf 0d 7e 1d cf 00 00 00 00 00 00 88   ..<q..~.........
00e0  00 00 00 00 00 00 00 00 00 00 00 00 00 00 00 0a   ................
00f0  00 00 00 0f 00 00 3a 56 ed 85 dd 16 18 fe 34 06   ......:V......4.
0100  02 00 0b 45 53 50 4d 5f 30 44 37 45 31 43 8c bd   ...ESPM_0D7E1C..
0110  2a f5 dd 15 18 fe 34 0c 02 b8 27 eb 22 ef da 9a   *.....4...'."...
0120  ac c3 7f 9a 22 97 77 4d 78 01 d3 03 74            ....".wMx...t

No.     Time           Source                Destination           Protocol Length Info
     49 1.733564184    Espressi_0d:7e:19     Broadcast             802.11   301    Beacon frame, SN=76, FN=0, Flags=........C, BI=300, SSID=Wildcard (Broadcast)

Frame 49: 301 bytes on wire (2408 bits), 301 bytes captured (2408 bits) on interface 0
    Interface id: 0 (mon2)
    Encapsulation type: IEEE 802.11 plus radiotap radio header (23)
    Arrival Time: Apr  5, 2020 11:04:52.724574956 CEST
    [Time shift for this packet: 0.000000000 seconds]
    Epoch Time: 1586077492.724574956 seconds
    [Time delta from previous captured frame: 0.005790548 seconds]
    [Time delta from previous displayed frame: 0.005790548 seconds]
    [Time since reference or first frame: 1.733564184 seconds]
    Frame Number: 49
    Frame Length: 301 bytes (2408 bits)
    Capture Length: 301 bytes (2408 bits)
    [Frame is marked: False]
    [Frame is ignored: False]
    [Protocols in frame: radiotap:wlan_radio:wlan]
Radiotap Header v0, Length 26
802.11 radio information
IEEE 802.11 Beacon frame, Flags: ........C
IEEE 802.11 wireless LAN

0000  00 00 1a 00 2f 48 00 00 07 0c ae a1 00 00 00 00   ..../H..........
0010  10 02 8a 09 a0 00 da 00 00 00 80 00 00 00 ff ff   ................
0020  ff ff ff ff 3c 71 bf 0d 7e 19 3c 71 bf 0d 7e 19   ....<q..~.<q..~.
0030  c0 04 82 0f 0b db 00 00 00 00 2c 01 21 04 00 00   ..........,.!...
0040  01 08 8b 96 82 84 0c 18 30 60 03 01 07 05 05 01   ........0`......
0050  02 00 00 00 07 06 55 53 20 01 0b 1e 2a 01 00 32   ......US ...*..2
0060  04 6c 12 24 48 2d 1a 6e 11 00 ff 00 00 00 00 00   .l.$H-.n........
0070  00 00 00 00 00 00 01 00 00 00 00 00 00 00 00 00   ................
0080  00 3d 16 07 05 00 00 00 00 00 00 00 00 00 00 00   .=..............
0090  00 00 00 00 00 00 00 00 00 dd 18 00 50 f2 02 01   ............P...
00a0  01 04 00 03 a4 00 00 27 a4 00 00 42 43 5e 00 62   .......'...BC^.b
00b0  32 2f 00 dd 45 18 fe 34 01 02 02 77 77 77 77 77   2/..E..4...wwwww
00c0  77 17 02 06 00 00 00 02 00 01 00 01 00 01 00 cf   w...............
00d0  c2 04 3c 71 bf 0d 7e 1d cf 00 00 00 00 00 00 88   ..<q..~.........
00e0  00 00 00 00 00 00 00 00 00 00 00 00 00 00 00 0a   ................
00f0  00 00 00 0f 00 00 b4 1d 05 24 dd 16 18 fe 34 06   .........$....4.
0100  02 00 0b 45 53 50 4d 5f 30 44 37 45 31 38 38 15   ...ESPM_0D7E188.
0110  fd 32 dd 15 18 fe 34 0c 02 b8 27 eb 22 ef da 5e   .2....4...'."..^
0120  e4 1f 0b 97 85 16 b6 d1 58 e0 68 03 a2            ........X.h..

No.     Time           Source                Destination           Protocol Length Info
     56 2.034562496    Espressi_0d:7e:1d     Broadcast             802.11   301    Beacon frame, SN=62, FN=0, Flags=........C, BI=300, SSID=Wildcard (Broadcast)

Frame 56: 301 bytes on wire (2408 bits), 301 bytes captured (2408 bits) on interface 0
    Interface id: 0 (mon2)
    Encapsulation type: IEEE 802.11 plus radiotap radio header (23)
    Arrival Time: Apr  5, 2020 11:04:53.025573268 CEST
    [Time shift for this packet: 0.000000000 seconds]
    Epoch Time: 1586077493.025573268 seconds
    [Time delta from previous captured frame: 0.053637777 seconds]
    [Time delta from previous displayed frame: 0.300998312 seconds]
    [Time since reference or first frame: 2.034562496 seconds]
    Frame Number: 56
    Frame Length: 301 bytes (2408 bits)
    Capture Length: 301 bytes (2408 bits)
    [Frame is marked: False]
    [Frame is ignored: False]
    [Protocols in frame: radiotap:wlan_radio:wlan]
Radiotap Header v0, Length 26
802.11 radio information
IEEE 802.11 Beacon frame, Flags: ........C
IEEE 802.11 wireless LAN

0000  00 00 1a 00 2f 48 00 00 c2 a3 b2 a1 00 00 00 00   ..../H..........
0010  10 02 8a 09 a0 00 ce 00 00 00 80 00 00 00 ff ff   ................
0020  ff ff ff ff 3c 71 bf 0d 7e 1d 3c 71 bf 0d 7e 1d   ....<q..~.<q..~.
0030  e0 03 10 b6 0f db 00 00 00 00 2c 01 21 04 00 00   ..........,.!...
0040  01 08 8b 96 82 84 0c 18 30 60 03 01 07 05 05 01   ........0`......
0050  02 00 00 00 07 06 55 53 20 01 0b 1e 2a 01 00 32   ......US ...*..2
0060  04 6c 12 24 48 2d 1a 6e 11 00 ff 00 00 00 00 00   .l.$H-.n........
0070  00 00 00 00 00 00 01 00 00 00 00 00 00 00 00 00   ................
0080  00 3d 16 07 05 00 00 00 00 00 00 00 00 00 00 00   .=..............
0090  00 00 00 00 00 00 00 00 00 dd 18 00 50 f2 02 01   ............P...
00a0  01 04 00 03 a4 00 00 27 a4 00 00 42 43 5e 00 62   .......'...BC^.b
00b0  32 2f 00 dd 45 18 fe 34 01 02 01 77 77 77 77 77   2/..E..4...wwwww
00c0  77 18 01 06 01 00 00 02 00 02 00 00 00 01 00 cb   w...............
00d0  cf 04 3c 71 bf 0d 7e 1d cf 00 00 00 00 00 00 88   ..<q..~.........
00e0  00 00 00 00 00 00 00 00 00 00 00 00 00 00 00 0a   ................
00f0  00 00 00 0f 00 00 3a 56 ed 85 dd 16 18 fe 34 06   ......:V......4.
0100  02 00 0b 45 53 50 4d 5f 30 44 37 45 31 43 8c bd   ...ESPM_0D7E1C..
0110  2a f5 dd 15 18 fe 34 0c 02 b8 27 eb 22 ef da 33   *.....4...'."..3
0120  67 0a 24 ac 2d 42 02 94 aa 14 3d 3e 51            g.$.-B....=>Q

No.     Time           Source                Destination           Protocol Length Info
     59 2.166634404                          Espressi_0d:7e:18 (3c:71:bf:0d:7e:18) (RA) 802.11   40     Acknowledgement, Flags=........C

Frame 59: 40 bytes on wire (320 bits), 40 bytes captured (320 bits) on interface 0
    Interface id: 0 (mon2)
    Encapsulation type: IEEE 802.11 plus radiotap radio header (23)
    Arrival Time: Apr  5, 2020 11:04:53.157645176 CEST
    [Time shift for this packet: 0.000000000 seconds]
    Epoch Time: 1586077493.157645176 seconds
    [Time delta from previous captured frame: 0.083330508 seconds]
    [Time delta from previous displayed frame: 0.132071908 seconds]
    [Time since reference or first frame: 2.166634404 seconds]
    Frame Number: 59
    Frame Length: 40 bytes (320 bits)
    Capture Length: 40 bytes (320 bits)
    [Frame is marked: False]
    [Frame is ignored: False]
    [Protocols in frame: radiotap:wlan_radio:wlan]
Radiotap Header v0, Length 26
802.11 radio information
IEEE 802.11 Acknowledgement, Flags: ........C

0000  00 00 1a 00 2f 48 00 00 48 b0 b4 a1 00 00 00 00   ..../H..H.......
0010  10 30 8a 09 c0 00 cd 00 00 00 d4 00 00 00 3c 71   .0............<q
0020  bf 0d 7e 18 5d 48 63 ed                           ..~.]Hc.

No.     Time           Source                Destination           Protocol Length Info
     60 2.168760715    Espressi_0d:7e:1d     Espressi_0d:7e:18     LLC      92     U, func=UI; SNAP, OUI 0x18FE34 (Espressif Inc.), PID 0xEEEE

Frame 60: 92 bytes on wire (736 bits), 92 bytes captured (736 bits) on interface 0
    Interface id: 0 (mon2)
    Encapsulation type: IEEE 802.11 plus radiotap radio header (23)
    Arrival Time: Apr  5, 2020 11:04:53.159771487 CEST
    [Time shift for this packet: 0.000000000 seconds]
    Epoch Time: 1586077493.159771487 seconds
    [Time delta from previous captured frame: 0.002126311 seconds]
    [Time delta from previous displayed frame: 0.002126311 seconds]
    [Time since reference or first frame: 2.168760715 seconds]
    Frame Number: 60
    Frame Length: 92 bytes (736 bits)
    Capture Length: 92 bytes (736 bits)
    [Frame is marked: False]
    [Frame is ignored: False]
    [Protocols in frame: radiotap:wlan_radio:wlan:llc:data]
Radiotap Header v0, Length 26
802.11 radio information
IEEE 802.11 QoS Data, Flags: ......F.C
Logical-Link Control
Data (28 bytes)
    Data: 01071c00318500003c71bf0d7e183c71bf0d7e1c07000000...
    [Length: 28]

0000  00 00 1a 00 2f 48 00 00 4a b8 b4 a1 00 00 00 00   ..../H..J.......
0010  10 0b 8a 09 a0 00 cc 00 00 00 88 02 7f 00 3c 71   ..............<q
0020  bf 0d 7e 18 3c 71 bf 0d 7e 1d 3c 71 bf 0d 7e 1d   ..~.<q..~.<q..~.
0030  60 00 00 00 aa aa 03 18 fe 34 ee ee 01 07 1c 00   `........4......
0040  31 85 00 00 3c 71 bf 0d 7e 18 3c 71 bf 0d 7e 1c   1...<q..~.<q..~.
0050  07 00 00 00 0c 00 00 00 8d 5d 78 bb               .........]x.

No.     Time           Source                Destination           Protocol Length Info
     61 2.168911315                          Espressi_0d:7e:1d (3c:71:bf:0d:7e:1d) (RA) 802.11   40     Acknowledgement, Flags=........C

Frame 61: 40 bytes on wire (320 bits), 40 bytes captured (320 bits) on interface 0
    Interface id: 0 (mon2)
    Encapsulation type: IEEE 802.11 plus radiotap radio header (23)
    Arrival Time: Apr  5, 2020 11:04:53.159922087 CEST
    [Time shift for this packet: 0.000000000 seconds]
    Epoch Time: 1586077493.159922087 seconds
    [Time delta from previous captured frame: 0.000150600 seconds]
    [Time delta from previous displayed frame: 0.000150600 seconds]
    [Time since reference or first frame: 2.168911315 seconds]
    Frame Number: 61
    Frame Length: 40 bytes (320 bits)
    Capture Length: 40 bytes (320 bits)
    [Frame is marked: False]
    [Frame is ignored: False]
    [Protocols in frame: radiotap:wlan_radio:wlan]
Radiotap Header v0, Length 26
802.11 radio information
IEEE 802.11 Acknowledgement, Flags: ........C

0000  00 00 1a 00 2f 48 00 00 1a b9 b4 a1 00 00 00 00   ..../H..........
0010  10 0b 8a 09 a0 00 e0 00 00 00 d4 00 00 00 3c 71   ..............<q
0020  bf 0d 7e 1d d2 bc 09 9d                           ..~.....

No.     Time           Source                Destination           Protocol Length Info
     62 2.170734611                          Espressi_0d:7e:18 (3c:71:bf:0d:7e:18) (RA) 802.11   40     Acknowledgement, Flags=........C

Frame 62: 40 bytes on wire (320 bits), 40 bytes captured (320 bits) on interface 0
    Interface id: 0 (mon2)
    Encapsulation type: IEEE 802.11 plus radiotap radio header (23)
    Arrival Time: Apr  5, 2020 11:04:53.161745383 CEST
    [Time shift for this packet: 0.000000000 seconds]
    Epoch Time: 1586077493.161745383 seconds
    [Time delta from previous captured frame: 0.001823296 seconds]
    [Time delta from previous displayed frame: 0.001823296 seconds]
    [Time since reference or first frame: 2.170734611 seconds]
    Frame Number: 62
    Frame Length: 40 bytes (320 bits)
    Capture Length: 40 bytes (320 bits)
    [Frame is marked: False]
    [Frame is ignored: False]
    [Protocols in frame: radiotap:wlan_radio:wlan]
Radiotap Header v0, Length 26
802.11 radio information
IEEE 802.11 Acknowledgement, Flags: ........C

0000  00 00 1a 00 2f 48 00 00 53 c0 b4 a1 00 00 00 00   ..../H..S.......
0010  10 30 8a 09 c0 00 cd 00 00 00 d4 00 00 00 3c 71   .0............<q
0020  bf 0d 7e 18 5d 48 63 ed                           ..~.]Hc.

No.     Time           Source                Destination           Protocol Length Info
     65 2.342607144    Espressi_0d:7e:1d     Broadcast             802.11   301    Beacon frame, SN=63, FN=0, Flags=........C, BI=300, SSID=Wildcard (Broadcast)

Frame 65: 301 bytes on wire (2408 bits), 301 bytes captured (2408 bits) on interface 0
    Interface id: 0 (mon2)
    Encapsulation type: IEEE 802.11 plus radiotap radio header (23)
    Arrival Time: Apr  5, 2020 11:04:53.333617916 CEST
    [Time shift for this packet: 0.000000000 seconds]
    Epoch Time: 1586077493.333617916 seconds
    [Time delta from previous captured frame: 0.054493734 seconds]
    [Time delta from previous displayed frame: 0.171872533 seconds]
    [Time since reference or first frame: 2.342607144 seconds]
    Frame Number: 65
    Frame Length: 301 bytes (2408 bits)
    Capture Length: 301 bytes (2408 bits)
    [Frame is marked: False]
    [Frame is ignored: False]
    [Protocols in frame: radiotap:wlan_radio:wlan]
Radiotap Header v0, Length 26
802.11 radio information
IEEE 802.11 Beacon frame, Flags: ........C
IEEE 802.11 wireless LAN

0000  00 00 1a 00 2f 48 00 00 fd 56 b7 a1 00 00 00 00   ..../H...V......
0010  10 02 8a 09 a0 00 ce 00 00 00 80 00 00 00 ff ff   ................
0020  ff ff ff ff 3c 71 bf 0d 7e 1d 3c 71 bf 0d 7e 1d   ....<q..~.<q..~.
0030  f0 03 4a 69 14 db 00 00 00 00 2c 01 21 04 00 00   ..Ji......,.!...
0040  01 08 8b 96 82 84 0c 18 30 60 03 01 07 05 05 01   ........0`......
0050  02 00 00 00 07 06 55 53 20 01 0b 1e 2a 01 00 32   ......US ...*..2
0060  04 6c 12 24 48 2d 1a 6e 11 00 ff 00 00 00 00 00   .l.$H-.n........
0070  00 00 00 00 00 00 01 00 00 00 00 00 00 00 00 00   ................
0080  00 3d 16 07 05 00 00 00 00 00 00 00 00 00 00 00   .=..............
0090  00 00 00 00 00 00 00 00 00 dd 18 00 50 f2 02 01   ............P...
00a0  01 04 00 03 a4 00 00 27 a4 00 00 42 43 5e 00 62   .......'...BC^.b
00b0  32 2f 00 dd 45 18 fe 34 01 02 01 77 77 77 77 77   2/..E..4...wwwww
00c0  77 18 01 06 01 00 00 02 00 02 00 00 00 01 00 cb   w...............
00d0  d0 04 3c 71 bf 0d 7e 1d d0 00 00 00 00 00 00 88   ..<q..~.........
00e0  00 00 00 00 00 00 00 00 00 00 00 00 00 00 00 0a   ................
00f0  00 00 00 0f 00 00 d6 29 de 6c dd 16 18 fe 34 06   .......).l....4.
0100  02 00 0b 45 53 50 4d 5f 30 44 37 45 31 43 8c bd   ...ESPM_0D7E1C..
0110  2a f5 dd 15 18 fe 34 0c 02 b8 27 eb 22 ef da 9a   *.....4...'."...
0120  ac c3 7f 9a 22 97 77 4d 78 0d 31 ae a1            ....".wMx.1..

No.     Time           Source                Destination           Protocol Length Info
     66 2.349468702    Espressi_0d:7e:19     Broadcast             802.11   301    Beacon frame, SN=78, FN=0, Flags=........C, BI=300, SSID=Wildcard (Broadcast)

Frame 66: 301 bytes on wire (2408 bits), 301 bytes captured (2408 bits) on interface 0
    Interface id: 0 (mon2)
    Encapsulation type: IEEE 802.11 plus radiotap radio header (23)
    Arrival Time: Apr  5, 2020 11:04:53.340479474 CEST
    [Time shift for this packet: 0.000000000 seconds]
    Epoch Time: 1586077493.340479474 seconds
    [Time delta from previous captured frame: 0.006861558 seconds]
    [Time delta from previous displayed frame: 0.006861558 seconds]
    [Time since reference or first frame: 2.349468702 seconds]
    Frame Number: 66
    Frame Length: 301 bytes (2408 bits)
    Capture Length: 301 bytes (2408 bits)
    [Frame is marked: False]
    [Frame is ignored: False]
    [Protocols in frame: radiotap:wlan_radio:wlan]
Radiotap Header v0, Length 26
802.11 radio information
IEEE 802.11 Beacon frame, Flags: ........C
IEEE 802.11 wireless LAN

0000  00 00 1a 00 2f 48 00 00 e4 71 b7 a1 00 00 00 00   ..../H...q......
0010  10 02 8a 09 a0 00 de 00 00 00 80 00 00 00 ff ff   ................
0020  ff ff ff ff 3c 71 bf 0d 7e 19 3c 71 bf 0d 7e 19   ....<q..~.<q..~.
0030  e0 04 61 75 14 db 00 00 00 00 2c 01 21 04 00 00   ..au......,.!...
0040  01 08 8b 96 82 84 0c 18 30 60 03 01 07 05 05 01   ........0`......
0050  02 00 00 00 07 06 55 53 20 01 0b 1e 2a 01 00 32   ......US ...*..2
0060  04 6c 12 24 48 2d 1a 6e 11 00 ff 00 00 00 00 00   .l.$H-.n........
0070  00 00 00 00 00 00 01 00 00 00 00 00 00 00 00 00   ................
0080  00 3d 16 07 05 00 00 00 00 00 00 00 00 00 00 00   .=..............
0090  00 00 00 00 00 00 00 00 00 dd 18 00 50 f2 02 01   ............P...
00a0  01 04 00 03 a4 00 00 27 a4 00 00 42 43 5e 00 62   .......'...BC^.b
00b0  32 2f 00 dd 45 18 fe 34 01 02 02 77 77 77 77 77   2/..E..4...wwwww
00c0  77 17 02 06 00 00 00 02 00 01 00 01 00 01 00 cf   w...............
00d0  c3 04 3c 71 bf 0d 7e 1d cf 00 00 00 00 00 00 88   ..<q..~.........
00e0  00 00 00 00 00 00 00 00 00 00 00 00 00 00 00 0a   ................
00f0  00 00 00 0f 00 00 56 e0 8d a9 dd 16 18 fe 34 06   ......V.......4.
0100  02 00 0b 45 53 50 4d 5f 30 44 37 45 31 38 38 15   ...ESPM_0D7E188.
0110  fd 32 dd 15 18 fe 34 0c 02 b8 27 eb 22 ef da 5e   .2....4...'."..^
0120  e4 1f 0b 97 85 16 b6 d1 58 0d 6a 3f ad            ........X.j?.

No.     Time           Source                Destination           Protocol Length Info
     75 2.649430260    Espressi_0d:7e:1d     Broadcast             802.11   301    Beacon frame, SN=64, FN=0, Flags=........C, BI=300, SSID=Wildcard (Broadcast)

Frame 75: 301 bytes on wire (2408 bits), 301 bytes captured (2408 bits) on interface 0
    Interface id: 0 (mon2)
    Encapsulation type: IEEE 802.11 plus radiotap radio header (23)
    Arrival Time: Apr  5, 2020 11:04:53.640441032 CEST
    [Time shift for this packet: 0.000000000 seconds]
    Epoch Time: 1586077493.640441032 seconds
    [Time delta from previous captured frame: 0.054130830 seconds]
    [Time delta from previous displayed frame: 0.299961558 seconds]
    [Time since reference or first frame: 2.649430260 seconds]
    Frame Number: 75
    Frame Length: 301 bytes (2408 bits)
    Capture Length: 301 bytes (2408 bits)
    [Frame is marked: False]
    [Frame is ignored: False]
    [Protocols in frame: radiotap:wlan_radio:wlan]
Radiotap Header v0, Length 26
802.11 radio information
IEEE 802.11 Beacon frame, Flags: ........C
IEEE 802.11 wireless LAN

0000  00 00 1a 00 2f 48 00 00 a0 05 bc a1 00 00 00 00   ..../H..........
0010  10 02 8a 09 a0 00 cc 00 00 00 80 00 00 00 ff ff   ................
0020  ff ff ff ff 3c 71 bf 0d 7e 1d 3c 71 bf 0d 7e 1d   ....<q..~.<q..~.
0030  00 04 ed 17 19 db 00 00 00 00 2c 01 21 04 00 00   ..........,.!...
0040  01 08 8b 96 82 84 0c 18 30 60 03 01 07 05 05 01   ........0`......
0050  02 00 00 00 07 06 55 53 20 01 0b 1e 2a 01 00 32   ......US ...*..2
0060  04 6c 12 24 48 2d 1a 6e 11 00 ff 00 00 00 00 00   .l.$H-.n........
0070  00 00 00 00 00 00 01 00 00 00 00 00 00 00 00 00   ................
0080  00 3d 16 07 05 00 00 00 00 00 00 00 00 00 00 00   .=..............
0090  00 00 00 00 00 00 00 00 00 dd 18 00 50 f2 02 01   ............P...
00a0  01 04 00 03 a4 00 00 27 a4 00 00 42 43 5e 00 62   .......'...BC^.b
00b0  32 2f 00 dd 45 18 fe 34 01 02 01 77 77 77 77 77   2/..E..4...wwwww
00c0  77 18 01 06 01 00 00 02 00 02 00 00 00 01 00 cb   w...............
00d0  cf 04 3c 71 bf 0d 7e 1d cf 00 00 00 00 00 00 88   ..<q..~.........
00e0  00 00 00 00 00 00 00 00 00 00 00 00 00 00 00 0a   ................
00f0  00 00 00 0f 00 00 3a 56 ed 85 dd 16 18 fe 34 06   ......:V......4.
0100  02 00 0b 45 53 50 4d 5f 30 44 37 45 31 43 8c bd   ...ESPM_0D7E1C..
0110  2a f5 dd 15 18 fe 34 0c 02 b8 27 eb 22 ef da 33   *.....4...'."..3
0120  67 0a 24 ac 2d 42 02 94 aa 1f 8c 5c 46            g.$.-B.....\F

No.     Time           Source                Destination           Protocol Length Info
     76 2.654768602    Espressi_0d:7e:19     Broadcast             802.11   301    Beacon frame, SN=79, FN=0, Flags=........C, BI=300, SSID=Wildcard (Broadcast)

Frame 76: 301 bytes on wire (2408 bits), 301 bytes captured (2408 bits) on interface 0
    Interface id: 0 (mon2)
    Encapsulation type: IEEE 802.11 plus radiotap radio header (23)
    Arrival Time: Apr  5, 2020 11:04:53.645779374 CEST
    [Time shift for this packet: 0.000000000 seconds]
    Epoch Time: 1586077493.645779374 seconds
    [Time delta from previous captured frame: 0.005338342 seconds]
    [Time delta from previous displayed frame: 0.005338342 seconds]
    [Time since reference or first frame: 2.654768602 seconds]
    Frame Number: 76
    Frame Length: 301 bytes (2408 bits)
    Capture Length: 301 bytes (2408 bits)
    [Frame is marked: False]
    [Frame is ignored: False]
    [Protocols in frame: radiotap:wlan_radio:wlan]
Radiotap Header v0, Length 26
802.11 radio information
IEEE 802.11 Beacon frame, Flags: ........C
IEEE 802.11 wireless LAN

0000  00 00 1a 00 2f 48 00 00 7d 1a bc a1 00 00 00 00   ..../H..}.......
0010  10 02 8a 09 a0 00 de 00 00 00 80 00 00 00 ff ff   ................
0020  ff ff ff ff 3c 71 bf 0d 7e 19 3c 71 bf 0d 7e 19   ....<q..~.<q..~.
0030  f0 04 fb 1d 19 db 00 00 00 00 2c 01 21 04 00 00   ..........,.!...
0040  01 08 8b 96 82 84 0c 18 30 60 03 01 07 05 05 01   ........0`......
0050  02 00 00 00 07 06 55 53 20 01 0b 1e 2a 01 00 32   ......US ...*..2
0060  04 6c 12 24 48 2d 1a 6e 11 00 ff 00 00 00 00 00   .l.$H-.n........
0070  00 00 00 00 00 00 01 00 00 00 00 00 00 00 00 00   ................
0080  00 3d 16 07 05 00 00 00 00 00 00 00 00 00 00 00   .=..............
0090  00 00 00 00 00 00 00 00 00 dd 18 00 50 f2 02 01   ............P...
00a0  01 04 00 03 a4 00 00 27 a4 00 00 42 43 5e 00 62   .......'...BC^.b
00b0  32 2f 00 dd 45 18 fe 34 01 02 02 77 77 77 77 77   2/..E..4...wwwww
00c0  77 17 02 06 00 00 00 02 00 01 00 01 00 01 00 cf   w...............
00d0  c2 04 3c 71 bf 0d 7e 1d cf 00 00 00 00 00 00 88   ..<q..~.........
00e0  00 00 00 00 00 00 00 00 00 00 00 00 00 00 00 0a   ................
00f0  00 00 00 0f 00 00 b4 1d 05 24 dd 16 18 fe 34 06   .........$....4.
0100  02 00 0b 45 53 50 4d 5f 30 44 37 45 31 38 38 15   ...ESPM_0D7E188.
0110  fd 32 dd 15 18 fe 34 0c 02 b8 27 eb 22 ef da 00   .2....4...'."...
0120  43 54 f9 8e 8c 29 f5 db b4 e4 0b aa 52            CT...)......R

No.     Time           Source                Destination           Protocol Length Info
     78 2.668319933                          Espressi_0d:7e:18 (3c:71:bf:0d:7e:18) (RA) 802.11   40     Acknowledgement, Flags=........C

Frame 78: 40 bytes on wire (320 bits), 40 bytes captured (320 bits) on interface 0
    Interface id: 0 (mon2)
    Encapsulation type: IEEE 802.11 plus radiotap radio header (23)
    Arrival Time: Apr  5, 2020 11:04:53.659330705 CEST
    [Time shift for this packet: 0.000000000 seconds]
    Epoch Time: 1586077493.659330705 seconds
    [Time delta from previous captured frame: 0.006394493 seconds]
    [Time delta from previous displayed frame: 0.013551331 seconds]
    [Time since reference or first frame: 2.668319933 seconds]
    Frame Number: 78
    Frame Length: 40 bytes (320 bits)
    Capture Length: 40 bytes (320 bits)
    [Frame is marked: False]
    [Frame is ignored: False]
    [Protocols in frame: radiotap:wlan_radio:wlan]
Radiotap Header v0, Length 26
802.11 radio information
IEEE 802.11 Acknowledgement, Flags: ........C

0000  00 00 1a 00 2f 48 00 00 e8 57 bc a1 00 00 00 00   ..../H...W......
0010  10 30 8a 09 c0 00 cc 00 00 00 d4 00 00 00 3c 71   .0............<q
0020  bf 0d 7e 18 5d 48 63 ed                           ..~.]Hc.

No.     Time           Source                Destination           Protocol Length Info
     84 2.957423910    Espressi_0d:7e:1d     Broadcast             802.11   301    Beacon frame, SN=65, FN=0, Flags=........C, BI=300, SSID=Wildcard (Broadcast)

Frame 84: 301 bytes on wire (2408 bits), 301 bytes captured (2408 bits) on interface 0
    Interface id: 0 (mon2)
    Encapsulation type: IEEE 802.11 plus radiotap radio header (23)
    Arrival Time: Apr  5, 2020 11:04:53.948434682 CEST
    [Time shift for this packet: 0.000000000 seconds]
    Epoch Time: 1586077493.948434682 seconds
    [Time delta from previous captured frame: 0.054918036 seconds]
    [Time delta from previous displayed frame: 0.289103977 seconds]
    [Time since reference or first frame: 2.957423910 seconds]
    Frame Number: 84
    Frame Length: 301 bytes (2408 bits)
    Capture Length: 301 bytes (2408 bits)
    [Frame is marked: False]
    [Frame is ignored: False]
    [Protocols in frame: radiotap:wlan_radio:wlan]
Radiotap Header v0, Length 26
802.11 radio information
IEEE 802.11 Beacon frame, Flags: ........C
IEEE 802.11 wireless LAN

0000  00 00 1a 00 2f 48 00 00 a4 b8 c0 a1 00 00 00 00   ..../H..........
0010  10 02 8a 09 a0 00 cc 00 00 00 80 00 00 00 ff ff   ................
0020  ff ff ff ff 3c 71 bf 0d 7e 1d 3c 71 bf 0d 7e 1d   ....<q..~.<q..~.
0030  10 04 f1 ca 1d db 00 00 00 00 2c 01 21 04 00 00   ..........,.!...
0040  01 08 8b 96 82 84 0c 18 30 60 03 01 07 05 05 01   ........0`......
0050  02 00 00 00 07 06 55 53 20 01 0b 1e 2a 01 00 32   ......US ...*..2
0060  04 6c 12 24 48 2d 1a 6e 11 00 ff 00 00 00 00 00   .l.$H-.n........
0070  00 00 00 00 00 00 01 00 00 00 00 00 00 00 00 00   ................
0080  00 3d 16 07 05 00 00 00 00 00 00 00 00 00 00 00   .=..............
0090  00 00 00 00 00 00 00 00 00 dd 18 00 50 f2 02 01   ............P...
00a0  01 04 00 03 a4 00 00 27 a4 00 00 42 43 5e 00 62   .......'...BC^.b
00b0  32 2f 00 dd 45 18 fe 34 01 02 01 77 77 77 77 77   2/..E..4...wwwww
00c0  77 18 01 06 01 00 00 02 00 02 00 00 00 01 00 cb   w...............
00d0  d0 04 3c 71 bf 0d 7e 1d d0 00 00 00 00 00 00 88   ..<q..~.........
00e0  00 00 00 00 00 00 00 00 00 00 00 00 00 00 00 0a   ................
00f0  00 00 00 0f 00 00 d6 29 de 6c dd 16 18 fe 34 06   .......).l....4.
0100  02 00 0b 45 53 50 4d 5f 30 44 37 45 31 43 8c bd   ...ESPM_0D7E1C..
0110  2a f5 dd 15 18 fe 34 0c 02 b8 27 eb 22 ef da 9a   *.....4...'."...
0120  ac c3 7f 9a 22 97 77 4d 78 74 7a 04 2a            ....".wMxtz.*

No.     Time           Source                Destination           Protocol Length Info
     85 2.963320587    Espressi_0d:7e:19     Broadcast             802.11   301    Beacon frame, SN=79, FN=0, Flags=........C, BI=300, SSID=Wildcard (Broadcast)

Frame 85: 301 bytes on wire (2408 bits), 301 bytes captured (2408 bits) on interface 0
    Interface id: 0 (mon2)
    Encapsulation type: IEEE 802.11 plus radiotap radio header (23)
    Arrival Time: Apr  5, 2020 11:04:53.954331359 CEST
    [Time shift for this packet: 0.000000000 seconds]
    Epoch Time: 1586077493.954331359 seconds
    [Time delta from previous captured frame: 0.005896677 seconds]
    [Time delta from previous displayed frame: 0.005896677 seconds]
    [Time since reference or first frame: 2.963320587 seconds]
    Frame Number: 85
    Frame Length: 301 bytes (2408 bits)
    Capture Length: 301 bytes (2408 bits)
    [Frame is marked: False]
    [Frame is ignored: False]
    [Protocols in frame: radiotap:wlan_radio:wlan]
Radiotap Header v0, Length 26
802.11 radio information
IEEE 802.11 Beacon frame, Flags: ........C
IEEE 802.11 wireless LAN

0000  00 00 1a 00 2f 48 00 00 c5 cf c0 a1 00 00 00 00   ..../H..........
0010  10 02 8a 09 a0 00 de 00 00 00 80 00 00 00 ff ff   ................
0020  ff ff ff ff 3c 71 bf 0d 7e 19 3c 71 bf 0d 7e 19   ....<q..~.<q..~.
0030  f0 04 44 d3 1d db 00 00 00 00 2c 01 21 04 00 00   ..D.......,.!...
0040  01 08 8b 96 82 84 0c 18 30 60 03 01 07 05 05 00   ........0`......
0050  02 00 00 00 07 06 55 53 20 01 0b 1e 2a 01 00 32   ......US ...*..2
0060  04 6c 12 24 48 2d 1a 6e 11 00 ff 00 00 00 00 00   .l.$H-.n........
0070  00 00 00 00 00 00 01 00 00 00 00 00 00 00 00 00   ................
0080  00 3d 16 07 05 00 00 00 00 00 00 00 00 00 00 00   .=..............
0090  00 00 00 00 00 00 00 00 00 dd 18 00 50 f2 02 01   ............P...
00a0  01 04 00 03 a4 00 00 27 a4 00 00 42 43 5e 00 62   .......'...BC^.b
00b0  32 2f 00 dd 45 18 fe 34 01 02 02 77 77 77 77 77   2/..E..4...wwwww
00c0  77 17 02 06 00 00 00 02 00 01 00 01 00 01 00 cf   w...............
00d0  c2 04 3c 71 bf 0d 7e 1d cf 00 00 00 00 00 00 88   ..<q..~.........
00e0  00 00 00 00 00 00 00 00 00 00 00 00 00 00 00 0a   ................
00f0  00 00 00 0f 00 00 b4 1d 05 24 dd 16 18 fe 34 06   .........$....4.
0100  02 00 0b 45 53 50 4d 5f 30 44 37 45 31 38 38 15   ...ESPM_0D7E188.
0110  fd 32 dd 15 18 fe 34 0c 02 b8 27 eb 22 ef da 00   .2....4...'."...
0120  43 54 f9 8e 8c 29 f5 db b4 9a 44 52 43            CT...)....DRC

No.     Time           Source                Destination           Protocol Length Info
     90 3.167046058    Espressi_0d:7e:1d     Espressi_0d:7e:18     LLC      92     U, func=UI; SNAP, OUI 0x18FE34 (Espressif Inc.), PID 0xEEEE

Frame 90: 92 bytes on wire (736 bits), 92 bytes captured (736 bits) on interface 0
    Interface id: 0 (mon2)
    Encapsulation type: IEEE 802.11 plus radiotap radio header (23)
    Arrival Time: Apr  5, 2020 11:04:54.158056830 CEST
    [Time shift for this packet: 0.000000000 seconds]
    Epoch Time: 1586077494.158056830 seconds
    [Time delta from previous captured frame: 0.059780078 seconds]
    [Time delta from previous displayed frame: 0.203725471 seconds]
    [Time since reference or first frame: 3.167046058 seconds]
    Frame Number: 90
    Frame Length: 92 bytes (736 bits)
    Capture Length: 92 bytes (736 bits)
    [Frame is marked: False]
    [Frame is ignored: False]
    [Protocols in frame: radiotap:wlan_radio:wlan:llc:data]
Radiotap Header v0, Length 26
802.11 radio information
IEEE 802.11 QoS Data, Flags: ......F.C
Logical-Link Control
Data (28 bytes)
    Data: 01071c00318500003c71bf0d7e183c71bf0d7e1c08000000...
    [Length: 28]

0000  00 00 1a 00 2f 48 00 00 cf f3 c3 a1 00 00 00 00   ..../H..........
0010  10 0b 8a 09 a0 00 cc 00 00 00 88 02 7f 00 3c 71   ..............<q
0020  bf 0d 7e 18 3c 71 bf 0d 7e 1d 3c 71 bf 0d 7e 1d   ..~.<q..~.<q..~.
0030  70 00 00 00 aa aa 03 18 fe 34 ee ee 01 07 1c 00   p........4......
0040  31 85 00 00 3c 71 bf 0d 7e 18 3c 71 bf 0d 7e 1c   1...<q..~.<q..~.
0050  08 00 00 00 0e 00 00 00 54 84 b6 3c               ........T..<

No.     Time           Source                Destination           Protocol Length Info
     91 3.167188847                          Espressi_0d:7e:1d (3c:71:bf:0d:7e:1d) (RA) 802.11   40     Acknowledgement, Flags=........C

Frame 91: 40 bytes on wire (320 bits), 40 bytes captured (320 bits) on interface 0
    Interface id: 0 (mon2)
    Encapsulation type: IEEE 802.11 plus radiotap radio header (23)
    Arrival Time: Apr  5, 2020 11:04:54.158199619 CEST
    [Time shift for this packet: 0.000000000 seconds]
    Epoch Time: 1586077494.158199619 seconds
    [Time delta from previous captured frame: 0.000142789 seconds]
    [Time delta from previous displayed frame: 0.000142789 seconds]
    [Time since reference or first frame: 3.167188847 seconds]
    Frame Number: 91
    Frame Length: 40 bytes (320 bits)
    Capture Length: 40 bytes (320 bits)
    [Frame is marked: False]
    [Frame is ignored: False]
    [Protocols in frame: radiotap:wlan_radio:wlan]
Radiotap Header v0, Length 26
802.11 radio information
IEEE 802.11 Acknowledgement, Flags: ........C

0000  00 00 1a 00 2f 48 00 00 a0 f4 c3 a1 00 00 00 00   ..../H..........
0010  10 0b 8a 09 a0 00 de 00 00 00 d4 00 00 00 3c 71   ..............<q
0020  bf 0d 7e 1d d2 bc 09 9d                           ..~.....

No.     Time           Source                Destination           Protocol Length Info
     95 3.263973182    Espressi_0d:7e:1d     Broadcast             802.11   301    Beacon frame, SN=66, FN=0, Flags=........C, BI=300, SSID=Wildcard (Broadcast)

Frame 95: 301 bytes on wire (2408 bits), 301 bytes captured (2408 bits) on interface 0
    Interface id: 0 (mon2)
    Encapsulation type: IEEE 802.11 plus radiotap radio header (23)
    Arrival Time: Apr  5, 2020 11:04:54.254983954 CEST
    [Time shift for this packet: 0.000000000 seconds]
    Epoch Time: 1586077494.254983954 seconds
    [Time delta from previous captured frame: 0.054288078 seconds]
    [Time delta from previous displayed frame: 0.096784335 seconds]
    [Time since reference or first frame: 3.263973182 seconds]
    Frame Number: 95
    Frame Length: 301 bytes (2408 bits)
    Capture Length: 301 bytes (2408 bits)
    [Frame is marked: False]
    [Frame is ignored: False]
    [Protocols in frame: radiotap:wlan_radio:wlan]
Radiotap Header v0, Length 26
802.11 radio information
IEEE 802.11 Beacon frame, Flags: ........C
IEEE 802.11 wireless LAN

0000  00 00 1a 00 2f 48 00 00 2c 66 c5 a1 00 00 00 00   ..../H..,f......
0010  10 02 8a 09 a0 00 ce 00 00 00 80 00 00 00 ff ff   ................
0020  ff ff ff ff 3c 71 bf 0d 7e 1d 3c 71 bf 0d 7e 1d   ....<q..~.<q..~.
0030  20 04 79 78 22 db 00 00 00 00 2c 01 21 04 00 00    .yx".....,.!...
0040  01 08 8b 96 82 84 0c 18 30 60 03 01 07 05 05 01   ........0`......
0050  02 00 00 00 07 06 55 53 20 01 0b 1e 2a 01 00 32   ......US ...*..2
0060  04 6c 12 24 48 2d 1a 6e 11 00 ff 00 00 00 00 00   .l.$H-.n........
0070  00 00 00 00 00 00 01 00 00 00 00 00 00 00 00 00   ................
0080  00 3d 16 07 05 00 00 00 00 00 00 00 00 00 00 00   .=..............
0090  00 00 00 00 00 00 00 00 00 dd 18 00 50 f2 02 01   ............P...
00a0  01 04 00 03 a4 00 00 27 a4 00 00 42 43 5e 00 62   .......'...BC^.b
00b0  32 2f 00 dd 45 18 fe 34 01 02 01 77 77 77 77 77   2/..E..4...wwwww
00c0  77 18 01 06 01 00 00 02 00 02 00 00 00 01 00 cb   w...............
00d0  d0 04 3c 71 bf 0d 7e 1d d0 00 00 00 00 00 00 88   ..<q..~.........
00e0  00 00 00 00 00 00 00 00 00 00 00 00 00 00 00 0a   ................
00f0  00 00 00 0f 00 00 d6 29 de 6c dd 16 18 fe 34 06   .......).l....4.
0100  02 00 0b 45 53 50 4d 5f 30 44 37 45 31 43 8c bd   ...ESPM_0D7E1C..
0110  2a f5 dd 15 18 fe 34 0c 02 b8 27 eb 22 ef da 33   *.....4...'."..3
0120  67 0a 24 ac 2d 42 02 94 aa fa 85 f2 b7            g.$.-B.......

No.     Time           Source                Destination           Protocol Length Info
     96 3.270435250    Espressi_0d:7e:19     Broadcast             802.11   301    Beacon frame, SN=81, FN=0, Flags=........C, BI=300, SSID=Wildcard (Broadcast)

Frame 96: 301 bytes on wire (2408 bits), 301 bytes captured (2408 bits) on interface 0
    Interface id: 0 (mon2)
    Encapsulation type: IEEE 802.11 plus radiotap radio header (23)
    Arrival Time: Apr  5, 2020 11:04:54.261446022 CEST
    [Time shift for this packet: 0.000000000 seconds]
    Epoch Time: 1586077494.261446022 seconds
    [Time delta from previous captured frame: 0.006462068 seconds]
    [Time delta from previous displayed frame: 0.006462068 seconds]
    [Time since reference or first frame: 3.270435250 seconds]
    Frame Number: 96
    Frame Length: 301 bytes (2408 bits)
    Capture Length: 301 bytes (2408 bits)
    [Frame is marked: False]
    [Frame is ignored: False]
    [Protocols in frame: radiotap:wlan_radio:wlan]
Radiotap Header v0, Length 26
802.11 radio information
IEEE 802.11 Beacon frame, Flags: ........C
IEEE 802.11 wireless LAN

0000  00 00 1a 00 2f 48 00 00 94 7f c5 a1 00 00 00 00   ..../H..........
0010  10 02 8a 09 a0 00 e0 00 00 00 80 00 00 00 ff ff   ................
0020  ff ff ff ff 3c 71 bf 0d 7e 19 3c 71 bf 0d 7e 19   ....<q..~.<q..~.
0030  10 05 13 83 22 db 00 00 00 00 2c 01 21 04 00 00   ....".....,.!...
0040  01 08 8b 96 82 84 0c 18 30 60 03 01 07 05 05 01   ........0`......
0050  02 00 00 00 07 06 55 53 20 01 0b 1e 2a 01 00 32   ......US ...*..2
0060  04 6c 12 24 48 2d 1a 6e 11 00 ff 00 00 00 00 00   .l.$H-.n........
0070  00 00 00 00 00 00 01 00 00 00 00 00 00 00 00 00   ................
0080  00 3d 16 07 05 00 00 00 00 00 00 00 00 00 00 00   .=..............
0090  00 00 00 00 00 00 00 00 00 dd 18 00 50 f2 02 01   ............P...
00a0  01 04 00 03 a4 00 00 27 a4 00 00 42 43 5e 00 62   .......'...BC^.b
00b0  32 2f 00 dd 45 18 fe 34 01 02 02 77 77 77 77 77   2/..E..4...wwwww
00c0  77 17 02 06 00 00 00 02 00 01 00 01 00 01 00 cf   w...............
00d0  c3 04 3c 71 bf 0d 7e 1d d0 00 00 00 00 00 00 88   ..<q..~.........
00e0  00 00 00 00 00 00 00 00 00 00 00 00 00 00 00 0a   ................
00f0  00 00 00 0f 00 00 6d 6b 35 54 dd 16 18 fe 34 06   ......mk5T....4.
0100  02 00 0b 45 53 50 4d 5f 30 44 37 45 31 38 38 15   ...ESPM_0D7E188.
0110  fd 32 dd 15 18 fe 34 0c 02 b8 27 eb 22 ef da 5e   .2....4...'."..^
0120  e4 1f 0b 97 85 16 b6 d1 58 25 20 df 78            ........X% .x

No.     Time           Source                Destination           Protocol Length Info
    106 3.576100651    Espressi_0d:7e:19     Broadcast             802.11   301    Beacon frame, SN=82, FN=0, Flags=........C, BI=300, SSID=Wildcard (Broadcast)

Frame 106: 301 bytes on wire (2408 bits), 301 bytes captured (2408 bits) on interface 0
    Interface id: 0 (mon2)
    Encapsulation type: IEEE 802.11 plus radiotap radio header (23)
    Arrival Time: Apr  5, 2020 11:04:54.567111423 CEST
    [Time shift for this packet: 0.000000000 seconds]
    Epoch Time: 1586077494.567111423 seconds
    [Time delta from previous captured frame: 0.059226188 seconds]
    [Time delta from previous displayed frame: 0.305665401 seconds]
    [Time since reference or first frame: 3.576100651 seconds]
    Frame Number: 106
    Frame Length: 301 bytes (2408 bits)
    Capture Length: 301 bytes (2408 bits)
    [Frame is marked: False]
    [Frame is ignored: False]
    [Protocols in frame: radiotap:wlan_radio:wlan]
Radiotap Header v0, Length 26
802.11 radio information
IEEE 802.11 Beacon frame, Flags: ........C
IEEE 802.11 wireless LAN

0000  00 00 1a 00 2f 48 00 00 65 29 ca a1 00 00 00 00   ..../H..e)......
0010  10 02 8a 09 a0 00 e0 00 00 00 80 00 00 00 ff ff   ................
0020  ff ff ff ff 3c 71 bf 0d 7e 19 3c 71 bf 0d 7e 19   ....<q..~.<q..~.
0030  20 05 e5 2c 27 db 00 00 00 00 2c 01 21 04 00 00    ..,'.....,.!...
0040  01 08 8b 96 82 84 0c 18 30 60 03 01 07 05 05 01   ........0`......
0050  02 00 00 00 07 06 55 53 20 01 0b 1e 2a 01 00 32   ......US ...*..2
0060  04 6c 12 24 48 2d 1a 6e 11 00 ff 00 00 00 00 00   .l.$H-.n........
0070  00 00 00 00 00 00 01 00 00 00 00 00 00 00 00 00   ................
0080  00 3d 16 07 05 00 00 00 00 00 00 00 00 00 00 00   .=..............
0090  00 00 00 00 00 00 00 00 00 dd 18 00 50 f2 02 01   ............P...
00a0  01 04 00 03 a4 00 00 27 a4 00 00 42 43 5e 00 62   .......'...BC^.b
00b0  32 2f 00 dd 45 18 fe 34 01 02 02 77 77 77 77 77   2/..E..4...wwwww
00c0  77 17 02 06 00 00 00 02 00 01 00 01 00 01 00 cf   w...............
00d0  c3 04 3c 71 bf 0d 7e 1d d0 00 00 00 00 00 00 88   ..<q..~.........
00e0  00 00 00 00 00 00 00 00 00 00 00 00 00 00 00 0a   ................
00f0  00 00 00 0f 00 00 6d 6b 35 54 dd 16 18 fe 34 06   ......mk5T....4.
0100  02 00 0b 45 53 50 4d 5f 30 44 37 45 31 38 38 15   ...ESPM_0D7E188.
0110  fd 32 dd 15 18 fe 34 0c 02 b8 27 eb 22 ef da 00   .2....4...'."...
0120  43 54 f9 8e 8c 29 f5 db b4 c4 27 4f cb            CT...)....'O.

No.     Time           Source                Destination           Protocol Length Info
    109 3.665774872                          Espressi_0d:7e:18 (3c:71:bf:0d:7e:18) (RA) 802.11   40     Acknowledgement, Flags=........C

Frame 109: 40 bytes on wire (320 bits), 40 bytes captured (320 bits) on interface 0
    Interface id: 0 (mon2)
    Encapsulation type: IEEE 802.11 plus radiotap radio header (23)
    Arrival Time: Apr  5, 2020 11:04:54.656785644 CEST
    [Time shift for this packet: 0.000000000 seconds]
    Epoch Time: 1586077494.656785644 seconds
    [Time delta from previous captured frame: 0.046483593 seconds]
    [Time delta from previous displayed frame: 0.089674221 seconds]
    [Time since reference or first frame: 3.665774872 seconds]
    Frame Number: 109
    Frame Length: 40 bytes (320 bits)
    Capture Length: 40 bytes (320 bits)
    [Frame is marked: False]
    [Frame is ignored: False]
    [Protocols in frame: radiotap:wlan_radio:wlan]
Radiotap Header v0, Length 26
802.11 radio information
IEEE 802.11 Acknowledgement, Flags: ........C

0000  00 00 1a 00 2f 48 00 00 46 90 cb a1 00 00 00 00   ..../H..F.......
0010  10 30 8a 09 c0 00 cd 00 00 00 d4 00 00 00 3c 71   .0............<q
0020  bf 0d 7e 18 5d 48 63 ed                           ..~.]Hc.

No.     Time           Source                Destination           Protocol Length Info
    114 3.878642869    Espressi_0d:7e:1d     Broadcast             802.11   301    Beacon frame, SN=68, FN=0, Flags=........C, BI=300, SSID=Wildcard (Broadcast)

Frame 114: 301 bytes on wire (2408 bits), 301 bytes captured (2408 bits) on interface 0
    Interface id: 0 (mon2)
    Encapsulation type: IEEE 802.11 plus radiotap radio header (23)
    Arrival Time: Apr  5, 2020 11:04:54.869653641 CEST
    [Time shift for this packet: 0.000000000 seconds]
    Epoch Time: 1586077494.869653641 seconds
    [Time delta from previous captured frame: 0.054553833 seconds]
    [Time delta from previous displayed frame: 0.212867997 seconds]
    [Time since reference or first frame: 3.878642869 seconds]
    Frame Number: 114
    Frame Length: 301 bytes (2408 bits)
    Capture Length: 301 bytes (2408 bits)
    [Frame is marked: False]
    [Frame is ignored: False]
    [Protocols in frame: radiotap:wlan_radio:wlan]
Radiotap Header v0, Length 26
802.11 radio information
IEEE 802.11 Beacon frame, Flags: ........C
IEEE 802.11 wireless LAN

0000  00 00 1a 00 2f 48 00 00 57 c7 ce a1 00 00 00 00   ..../H..W.......
0010  10 02 8a 09 a0 00 cc 00 00 00 80 00 00 00 ff ff   ................
0020  ff ff ff ff 3c 71 bf 0d 7e 1d 3c 71 bf 0d 7e 1d   ....<q..~.<q..~.
0030  40 04 a4 d9 2b db 00 00 00 00 2c 01 21 04 00 00   @...+.....,.!...
0040  01 08 8b 96 82 84 0c 18 30 60 03 01 07 05 05 01   ........0`......
0050  02 00 00 00 07 06 55 53 20 01 0b 1e 2a 01 00 32   ......US ...*..2
0060  04 6c 12 24 48 2d 1a 6e 11 00 ff 00 00 00 00 00   .l.$H-.n........
0070  00 00 00 00 00 00 01 00 00 00 00 00 00 00 00 00   ................
0080  00 3d 16 07 05 00 00 00 00 00 00 00 00 00 00 00   .=..............
0090  00 00 00 00 00 00 00 00 00 dd 18 00 50 f2 02 01   ............P...
00a0  01 04 00 03 a4 00 00 27 a4 00 00 42 43 5e 00 62   .......'...BC^.b
00b0  32 2f 00 dd 45 18 fe 34 01 02 01 77 77 77 77 77   2/..E..4...wwwww
00c0  77 18 01 06 01 00 00 02 00 02 00 00 00 01 00 cb   w...............
00d0  d0 04 3c 71 bf 0d 7e 1d d0 00 00 00 00 00 00 88   ..<q..~.........
00e0  00 00 00 00 00 00 00 00 00 00 00 00 00 00 00 0a   ................
00f0  00 00 00 0f 00 00 d6 29 de 6c dd 16 18 fe 34 06   .......).l....4.
0100  02 00 0b 45 53 50 4d 5f 30 44 37 45 31 43 8c bd   ...ESPM_0D7E1C..
0110  2a f5 dd 15 18 fe 34 0c 02 b8 27 eb 22 ef da 33   *.....4...'."..3
0120  67 0a 24 ac 2d 42 02 94 aa 5a b2 7b a5            g.$.-B...Z.{.

No.     Time           Source                Destination           Protocol Length Info
    115 3.884050373    Espressi_0d:7e:19     Broadcast             802.11   301    Beacon frame, SN=83, FN=0, Flags=........C, BI=300, SSID=Wildcard (Broadcast)

Frame 115: 301 bytes on wire (2408 bits), 301 bytes captured (2408 bits) on interface 0
    Interface id: 0 (mon2)
    Encapsulation type: IEEE 802.11 plus radiotap radio header (23)
    Arrival Time: Apr  5, 2020 11:04:54.875061145 CEST
    [Time shift for this packet: 0.000000000 seconds]
    Epoch Time: 1586077494.875061145 seconds
    [Time delta from previous captured frame: 0.005407504 seconds]
    [Time delta from previous displayed frame: 0.005407504 seconds]
    [Time since reference or first frame: 3.884050373 seconds]
    Frame Number: 115
    Frame Length: 301 bytes (2408 bits)
    Capture Length: 301 bytes (2408 bits)
    [Frame is marked: False]
    [Frame is ignored: False]
    [Protocols in frame: radiotap:wlan_radio:wlan]
Radiotap Header v0, Length 26
802.11 radio information
IEEE 802.11 Beacon frame, Flags: ........C
IEEE 802.11 wireless LAN

0000  00 00 1a 00 2f 48 00 00 64 dc ce a1 00 00 00 00   ..../H..d.......
0010  10 02 8a 09 a0 00 e0 00 00 00 80 00 00 00 ff ff   ................
0020  ff ff ff ff 3c 71 bf 0d 7e 19 3c 71 bf 0d 7e 19   ....<q..~.<q..~.
0030  30 05 e5 df 2b db 00 00 00 00 2c 01 21 04 00 00   0...+.....,.!...
0040  01 08 8b 96 82 84 0c 18 30 60 03 01 07 05 05 01   ........0`......
0050  02 00 00 00 07 06 55 53 20 01 0b 1e 2a 01 00 32   ......US ...*..2
0060  04 6c 12 24 48 2d 1a 6e 11 00 ff 00 00 00 00 00   .l.$H-.n........
0070  00 00 00 00 00 00 01 00 00 00 00 00 00 00 00 00   ................
0080  00 3d 16 07 05 00 00 00 00 00 00 00 00 00 00 00   .=..............
0090  00 00 00 00 00 00 00 00 00 dd 18 00 50 f2 02 01   ............P...
00a0  01 04 00 03 a4 00 00 27 a4 00 00 42 43 5e 00 62   .......'...BC^.b
00b0  32 2f 00 dd 45 18 fe 34 01 02 02 77 77 77 77 77   2/..E..4...wwwww
00c0  77 17 02 06 00 00 00 02 00 01 00 01 00 01 00 cf   w...............
00d0  c4 04 3c 71 bf 0d 7e 1d cf 00 00 00 00 00 00 88   ..<q..~.........
00e0  00 00 00 00 00 00 00 00 00 00 00 00 00 00 00 0a   ................
00f0  00 00 00 0f 00 00 7a 1d d5 bf dd 16 18 fe 34 06   ......z.......4.
0100  02 00 0b 45 53 50 4d 5f 30 44 37 45 31 38 38 15   ...ESPM_0D7E188.
0110  fd 32 dd 15 18 fe 34 0c 02 b8 27 eb 22 ef da 5e   .2....4...'."..^
0120  e4 1f 0b 97 85 16 b6 d1 58 59 bb 60 c4            ........XY.`.

No.     Time           Source                Destination           Protocol Length Info
    122 4.165088858                          Espressi_0d:7e:18 (3c:71:bf:0d:7e:18) (RA) 802.11   40     Acknowledgement, Flags=........C

Frame 122: 40 bytes on wire (320 bits), 40 bytes captured (320 bits) on interface 0
    Interface id: 0 (mon2)
    Encapsulation type: IEEE 802.11 plus radiotap radio header (23)
    Arrival Time: Apr  5, 2020 11:04:55.156099630 CEST
    [Time shift for this packet: 0.000000000 seconds]
    Epoch Time: 1586077495.156099630 seconds
    [Time delta from previous captured frame: 0.033791845 seconds]
    [Time delta from previous displayed frame: 0.281038485 seconds]
    [Time since reference or first frame: 4.165088858 seconds]
    Frame Number: 122
    Frame Length: 40 bytes (320 bits)
    Capture Length: 40 bytes (320 bits)
    [Frame is marked: False]
    [Frame is ignored: False]
    [Protocols in frame: radiotap:wlan_radio:wlan]
Radiotap Header v0, Length 26
802.11 radio information
IEEE 802.11 Acknowledgement, Flags: ........C

0000  00 00 1a 00 2f 48 00 00 bc 2e d3 a1 00 00 00 00   ..../H..........
0010  10 30 8a 09 c0 00 cd 00 00 00 d4 00 00 00 3c 71   .0............<q
0020  bf 0d 7e 18 5d 48 63 ed                           ..~.]Hc.

No.     Time           Source                Destination           Protocol Length Info
    123 4.167257525    Espressi_0d:7e:1d     Espressi_0d:7e:18     LLC      92     U, func=UI; SNAP, OUI 0x18FE34 (Espressif Inc.), PID 0xEEEE

Frame 123: 92 bytes on wire (736 bits), 92 bytes captured (736 bits) on interface 0
    Interface id: 0 (mon2)
    Encapsulation type: IEEE 802.11 plus radiotap radio header (23)
    Arrival Time: Apr  5, 2020 11:04:55.158268297 CEST
    [Time shift for this packet: 0.000000000 seconds]
    Epoch Time: 1586077495.158268297 seconds
    [Time delta from previous captured frame: 0.002168667 seconds]
    [Time delta from previous displayed frame: 0.002168667 seconds]
    [Time since reference or first frame: 4.167257525 seconds]
    Frame Number: 123
    Frame Length: 92 bytes (736 bits)
    Capture Length: 92 bytes (736 bits)
    [Frame is marked: False]
    [Frame is ignored: False]
    [Protocols in frame: radiotap:wlan_radio:wlan:llc:data]
Radiotap Header v0, Length 26
802.11 radio information
IEEE 802.11 QoS Data, Flags: ......F.C
Logical-Link Control
Data (28 bytes)
    Data: 01071c00318500003c71bf0d7e183c71bf0d7e1c09000000...
    [Length: 28]

0000  00 00 1a 00 2f 48 00 00 d5 36 d3 a1 00 00 00 00   ..../H...6......
0010  10 0b 8a 09 a0 00 ce 00 00 00 88 02 7f 00 3c 71   ..............<q
0020  bf 0d 7e 18 3c 71 bf 0d 7e 1d 3c 71 bf 0d 7e 1d   ..~.<q..~.<q..~.
0030  80 00 00 00 aa aa 03 18 fe 34 ee ee 01 07 1c 00   .........4......
0040  31 85 00 00 3c 71 bf 0d 7e 18 3c 71 bf 0d 7e 1c   1...<q..~.<q..~.
0050  09 00 00 00 10 00 00 00 ab a3 00 29               ...........)

No.     Time           Source                Destination           Protocol Length Info
    124 4.167372735                          Espressi_0d:7e:1d (3c:71:bf:0d:7e:1d) (RA) 802.11   40     Acknowledgement, Flags=........C

Frame 124: 40 bytes on wire (320 bits), 40 bytes captured (320 bits) on interface 0
    Interface id: 0 (mon2)
    Encapsulation type: IEEE 802.11 plus radiotap radio header (23)
    Arrival Time: Apr  5, 2020 11:04:55.158383507 CEST
    [Time shift for this packet: 0.000000000 seconds]
    Epoch Time: 1586077495.158383507 seconds
    [Time delta from previous captured frame: 0.000115210 seconds]
    [Time delta from previous displayed frame: 0.000115210 seconds]
    [Time since reference or first frame: 4.167372735 seconds]
    Frame Number: 124
    Frame Length: 40 bytes (320 bits)
    Capture Length: 40 bytes (320 bits)
    [Frame is marked: False]
    [Frame is ignored: False]
    [Protocols in frame: radiotap:wlan_radio:wlan]
Radiotap Header v0, Length 26
802.11 radio information
IEEE 802.11 Acknowledgement, Flags: ........C

0000  00 00 1a 00 2f 48 00 00 a6 37 d3 a1 00 00 00 00   ..../H...7......
0010  10 0b 8a 09 a0 00 e0 00 00 00 d4 00 00 00 3c 71   ..............<q
0020  bf 0d 7e 1d d2 bc 09 9d                           ..~.....

No.     Time           Source                Destination           Protocol Length Info
    125 4.168490177                          Espressi_0d:7e:18 (3c:71:bf:0d:7e:18) (RA) 802.11   40     Acknowledgement, Flags=........C

Frame 125: 40 bytes on wire (320 bits), 40 bytes captured (320 bits) on interface 0
    Interface id: 0 (mon2)
    Encapsulation type: IEEE 802.11 plus radiotap radio header (23)
    Arrival Time: Apr  5, 2020 11:04:55.159500949 CEST
    [Time shift for this packet: 0.000000000 seconds]
    Epoch Time: 1586077495.159500949 seconds
    [Time delta from previous captured frame: 0.001117442 seconds]
    [Time delta from previous displayed frame: 0.001117442 seconds]
    [Time since reference or first frame: 4.168490177 seconds]
    Frame Number: 125
    Frame Length: 40 bytes (320 bits)
    Capture Length: 40 bytes (320 bits)
    [Frame is marked: False]
    [Frame is ignored: False]
    [Protocols in frame: radiotap:wlan_radio:wlan]
Radiotap Header v0, Length 26
802.11 radio information
IEEE 802.11 Acknowledgement, Flags: ........C

0000  00 00 1a 00 2f 48 00 00 0b 3c d3 a1 00 00 00 00   ..../H...<......
0010  10 30 8a 09 c0 00 cd 00 00 00 d4 00 00 00 3c 71   .0............<q
0020  bf 0d 7e 18 5d 48 63 ed                           ..~.]Hc.

No.     Time           Source                Destination           Protocol Length Info
    126 4.185666873    Espressi_0d:7e:1d     Broadcast             802.11   301    Beacon frame, SN=69, FN=0, Flags=........C, BI=300, SSID=Wildcard (Broadcast)

Frame 126: 301 bytes on wire (2408 bits), 301 bytes captured (2408 bits) on interface 0
    Interface id: 0 (mon2)
    Encapsulation type: IEEE 802.11 plus radiotap radio header (23)
    Arrival Time: Apr  5, 2020 11:04:55.176677645 CEST
    [Time shift for this packet: 0.000000000 seconds]
    Epoch Time: 1586077495.176677645 seconds
    [Time delta from previous captured frame: 0.017176696 seconds]
    [Time delta from previous displayed frame: 0.017176696 seconds]
    [Time since reference or first frame: 4.185666873 seconds]
    Frame Number: 126
    Frame Length: 301 bytes (2408 bits)
    Capture Length: 301 bytes (2408 bits)
    [Frame is marked: False]
    [Frame is ignored: False]
    [Protocols in frame: radiotap:wlan_radio:wlan]
Radiotap Header v0, Length 26
802.11 radio information
IEEE 802.11 Beacon frame, Flags: ........C
IEEE 802.11 wireless LAN

0000  00 00 1a 00 2f 48 00 00 85 76 d3 a1 00 00 00 00   ..../H...v......
0010  10 02 8a 09 a0 00 ce 00 00 00 80 00 00 00 ff ff   ................
0020  ff ff ff ff 3c 71 bf 0d 7e 1d 3c 71 bf 0d 7e 1d   ....<q..~.<q..~.
0030  50 04 d2 88 30 db 00 00 00 00 2c 01 21 04 00 00   P...0.....,.!...
0040  01 08 8b 96 82 84 0c 18 30 60 03 01 07 05 05 01   ........0`......
0050  02 00 00 00 07 06 55 53 20 01 0b 1e 2a 01 00 32   ......US ...*..2
0060  04 6c 12 24 48 2d 1a 6e 11 00 ff 00 00 00 00 00   .l.$H-.n........
0070  00 00 00 00 00 00 01 00 00 00 00 00 00 00 00 00   ................
0080  00 3d 16 07 05 00 00 00 00 00 00 00 00 00 00 00   .=..............
0090  00 00 00 00 00 00 00 00 00 dd 18 00 50 f2 02 01   ............P...
00a0  01 04 00 03 a4 00 00 27 a4 00 00 42 43 5e 00 62   .......'...BC^.b
00b0  32 2f 00 dd 45 18 fe 34 01 02 01 77 77 77 77 77   2/..E..4...wwwww
00c0  77 18 01 06 01 00 00 02 00 02 00 00 00 01 00 cb   w...............
00d0  cf 04 3c 71 bf 0d 7e 1d cf 00 00 00 00 00 00 88   ..<q..~.........
00e0  00 00 00 00 00 00 00 00 00 00 00 00 00 00 00 0a   ................
00f0  00 00 00 0f 00 00 3a 56 ed 85 dd 16 18 fe 34 06   ......:V......4.
0100  02 00 0b 45 53 50 4d 5f 30 44 37 45 31 43 8c bd   ...ESPM_0D7E1C..
0110  2a f5 dd 15 18 fe 34 0c 02 b8 27 eb 22 ef da 9a   *.....4...'."...
0120  ac c3 7f 9a 22 97 77 4d 78 4b c0 55 f3            ....".wMxK.U.

No.     Time           Source                Destination           Protocol Length Info
    127 4.191102147    Espressi_0d:7e:19     Broadcast             802.11   301    Beacon frame, SN=84, FN=0, Flags=........C, BI=300, SSID=Wildcard (Broadcast)

Frame 127: 301 bytes on wire (2408 bits), 301 bytes captured (2408 bits) on interface 0
    Interface id: 0 (mon2)
    Encapsulation type: IEEE 802.11 plus radiotap radio header (23)
    Arrival Time: Apr  5, 2020 11:04:55.182112919 CEST
    [Time shift for this packet: 0.000000000 seconds]
    Epoch Time: 1586077495.182112919 seconds
    [Time delta from previous captured frame: 0.005435274 seconds]
    [Time delta from previous displayed frame: 0.005435274 seconds]
    [Time since reference or first frame: 4.191102147 seconds]
    Frame Number: 127
    Frame Length: 301 bytes (2408 bits)
    Capture Length: 301 bytes (2408 bits)
    [Frame is marked: False]
    [Frame is ignored: False]
    [Protocols in frame: radiotap:wlan_radio:wlan]
Radiotap Header v0, Length 26
802.11 radio information
IEEE 802.11 Beacon frame, Flags: ........C
IEEE 802.11 wireless LAN

0000  00 00 1a 00 2f 48 00 00 e2 8b d3 a1 00 00 00 00   ..../H..........
0010  10 02 8a 09 a0 00 de 00 00 00 80 00 00 00 ff ff   ................
0020  ff ff ff ff 3c 71 bf 0d 7e 19 3c 71 bf 0d 7e 19   ....<q..~.<q..~.
0030  40 05 64 8f 30 db 00 00 00 00 2c 01 21 04 00 00   @.d.0.....,.!...
0040  01 08 8b 96 82 84 0c 18 30 60 03 01 07 05 05 01   ........0`......
0050  02 00 00 00 07 06 55 53 20 01 0b 1e 2a 01 00 32   ......US ...*..2
0060  04 6c 12 24 48 2d 1a 6e 11 00 ff 00 00 00 00 00   .l.$H-.n........
0070  00 00 00 00 00 00 01 00 00 00 00 00 00 00 00 00   ................
0080  00 3d 16 07 05 00 00 00 00 00 00 00 00 00 00 00   .=..............
0090  00 00 00 00 00 00 00 00 00 dd 18 00 50 f2 02 01   ............P...
00a0  01 04 00 03 a4 00 00 27 a4 00 00 42 43 5e 00 62   .......'...BC^.b
00b0  32 2f 00 dd 45 18 fe 34 01 02 02 77 77 77 77 77   2/..E..4...wwwww
00c0  77 17 02 06 00 00 00 02 00 01 00 01 00 01 00 d0   w...............
00d0  c3 04 3c 71 bf 0d 7e 1d d0 00 00 00 00 00 00 88   ..<q..~.........
00e0  00 00 00 00 00 00 00 00 00 00 00 00 00 00 00 0a   ................
00f0  00 00 00 0f 00 00 ee a7 96 4c dd 16 18 fe 34 06   .........L....4.
0100  02 00 0b 45 53 50 4d 5f 30 44 37 45 31 38 38 15   ...ESPM_0D7E188.
0110  fd 32 dd 15 18 fe 34 0c 02 b8 27 eb 22 ef da 00   .2....4...'."...
0120  43 54 f9 8e 8c 29 f5 db b4 4a a4 75 7e            CT...)...J.u~

No.     Time           Source                Destination           Protocol Length Info
    133 4.493735346    Espressi_0d:7e:1d     Broadcast             802.11   301    Beacon frame, SN=70, FN=0, Flags=........C, BI=300, SSID=Wildcard (Broadcast)

Frame 133: 301 bytes on wire (2408 bits), 301 bytes captured (2408 bits) on interface 0
    Interface id: 0 (mon2)
    Encapsulation type: IEEE 802.11 plus radiotap radio header (23)
    Arrival Time: Apr  5, 2020 11:04:55.484746118 CEST
    [Time shift for this packet: 0.000000000 seconds]
    Epoch Time: 1586077495.484746118 seconds
    [Time delta from previous captured frame: 0.090480258 seconds]
    [Time delta from previous displayed frame: 0.302633199 seconds]
    [Time since reference or first frame: 4.493735346 seconds]
    Frame Number: 133
    Frame Length: 301 bytes (2408 bits)
    Capture Length: 301 bytes (2408 bits)
    [Frame is marked: False]
    [Frame is ignored: False]
    [Protocols in frame: radiotap:wlan_radio:wlan]
Radiotap Header v0, Length 26
802.11 radio information
IEEE 802.11 Beacon frame, Flags: ........C
IEEE 802.11 wireless LAN

0000  00 00 1a 00 2f 48 00 00 e7 29 d8 a1 00 00 00 00   ..../H...)......
0010  10 02 8a 09 a0 00 ce 00 00 00 80 00 00 00 ff ff   ................
0020  ff ff ff ff 3c 71 bf 0d 7e 1d 3c 71 bf 0d 7e 1d   ....<q..~.<q..~.
0030  60 04 34 3c 35 db 00 00 00 00 2c 01 21 04 00 00   `.4<5.....,.!...
0040  01 08 8b 96 82 84 0c 18 30 60 03 01 07 05 05 01   ........0`......
0050  02 00 00 00 07 06 55 53 20 01 0b 1e 2a 01 00 32   ......US ...*..2
0060  04 6c 12 24 48 2d 1a 6e 11 00 ff 00 00 00 00 00   .l.$H-.n........
0070  00 00 00 00 00 00 01 00 00 00 00 00 00 00 00 00   ................
0080  00 3d 16 07 05 00 00 00 00 00 00 00 00 00 00 00   .=..............
0090  00 00 00 00 00 00 00 00 00 dd 18 00 50 f2 02 01   ............P...
00a0  01 04 00 03 a4 00 00 27 a4 00 00 42 43 5e 00 62   .......'...BC^.b
00b0  32 2f 00 dd 45 18 fe 34 01 02 01 77 77 77 77 77   2/..E..4...wwwww
00c0  77 18 01 06 01 00 00 02 00 02 00 00 00 01 00 cb   w...............
00d0  cf 04 3c 71 bf 0d 7e 1d cf 00 00 00 00 00 00 88   ..<q..~.........
00e0  00 00 00 00 00 00 00 00 00 00 00 00 00 00 00 0a   ................
00f0  00 00 00 0f 00 00 3a 56 ed 85 dd 16 18 fe 34 06   ......:V......4.
0100  02 00 0b 45 53 50 4d 5f 30 44 37 45 31 43 8c bd   ...ESPM_0D7E1C..
0110  2a f5 dd 15 18 fe 34 0c 02 b8 27 eb 22 ef da 33   *.....4...'."..3
0120  67 0a 24 ac 2d 42 02 94 aa f2 80 af 3d            g.$.-B......=

No.     Time           Source                Destination           Protocol Length Info
    134 4.498091668    Espressi_0d:7e:19     Broadcast             802.11   301    Beacon frame, SN=85, FN=0, Flags=........C, BI=300, SSID=Wildcard (Broadcast)

Frame 134: 301 bytes on wire (2408 bits), 301 bytes captured (2408 bits) on interface 0
    Interface id: 0 (mon2)
    Encapsulation type: IEEE 802.11 plus radiotap radio header (23)
    Arrival Time: Apr  5, 2020 11:04:55.489102440 CEST
    [Time shift for this packet: 0.000000000 seconds]
    Epoch Time: 1586077495.489102440 seconds
    [Time delta from previous captured frame: 0.004356322 seconds]
    [Time delta from previous displayed frame: 0.004356322 seconds]
    [Time since reference or first frame: 4.498091668 seconds]
    Frame Number: 134
    Frame Length: 301 bytes (2408 bits)
    Capture Length: 301 bytes (2408 bits)
    [Frame is marked: False]
    [Frame is ignored: False]
    [Protocols in frame: radiotap:wlan_radio:wlan]
Radiotap Header v0, Length 26
802.11 radio information
IEEE 802.11 Beacon frame, Flags: ........C
IEEE 802.11 wireless LAN

0000  00 00 1a 00 2f 48 00 00 f0 3a d8 a1 00 00 00 00   ..../H...:......
0010  10 02 8a 09 a0 00 de 00 00 00 80 00 00 00 ff ff   ................
0020  ff ff ff ff 3c 71 bf 0d 7e 19 3c 71 bf 0d 7e 19   ....<q..~.<q..~.
0030  50 05 73 3e 35 db 00 00 00 00 2c 01 21 04 00 00   P.s>5.....,.!...
0040  01 08 8b 96 82 84 0c 18 30 60 03 01 07 05 05 01   ........0`......
0050  02 00 00 00 07 06 55 53 20 01 0b 1e 2a 01 00 32   ......US ...*..2
0060  04 6c 12 24 48 2d 1a 6e 11 00 ff 00 00 00 00 00   .l.$H-.n........
0070  00 00 00 00 00 00 01 00 00 00 00 00 00 00 00 00   ................
0080  00 3d 16 07 05 00 00 00 00 00 00 00 00 00 00 00   .=..............
0090  00 00 00 00 00 00 00 00 00 dd 18 00 50 f2 02 01   ............P...
00a0  01 04 00 03 a4 00 00 27 a4 00 00 42 43 5e 00 62   .......'...BC^.b
00b0  32 2f 00 dd 45 18 fe 34 01 02 02 77 77 77 77 77   2/..E..4...wwwww
00c0  77 17 02 06 00 00 00 02 00 01 00 01 00 01 00 d0   w...............
00d0  c4 04 3c 71 bf 0d 7e 1d cf 00 00 00 00 00 00 88   ..<q..~.........
00e0  00 00 00 00 00 00 00 00 00 00 00 00 00 00 00 0a   ................
00f0  00 00 00 0f 00 00 f9 d1 76 a7 dd 16 18 fe 34 06   ........v.....4.
0100  02 00 0b 45 53 50 4d 5f 30 44 37 45 31 38 38 15   ...ESPM_0D7E188.
0110  fd 32 dd 15 18 fe 34 0c 02 b8 27 eb 22 ef da 5e   .2....4...'."..^
0120  e4 1f 0b 97 85 16 b6 d1 58 71 3a 87 98            ........Xq:..

No.     Time           Source                Destination           Protocol Length Info
    140 4.665223963                          Espressi_0d:7e:18 (3c:71:bf:0d:7e:18) (RA) 802.11   40     Acknowledgement, Flags=........C

Frame 140: 40 bytes on wire (320 bits), 40 bytes captured (320 bits) on interface 0
    Interface id: 0 (mon2)
    Encapsulation type: IEEE 802.11 plus radiotap radio header (23)
    Arrival Time: Apr  5, 2020 11:04:55.656234735 CEST
    [Time shift for this packet: 0.000000000 seconds]
    Epoch Time: 1586077495.656234735 seconds
    [Time delta from previous captured frame: 0.021955005 seconds]
    [Time delta from previous displayed frame: 0.167132295 seconds]
    [Time since reference or first frame: 4.665223963 seconds]
    Frame Number: 140
    Frame Length: 40 bytes (320 bits)
    Capture Length: 40 bytes (320 bits)
    [Frame is marked: False]
    [Frame is ignored: False]
    [Protocols in frame: radiotap:wlan_radio:wlan]
Radiotap Header v0, Length 26
802.11 radio information
IEEE 802.11 Acknowledgement, Flags: ........C

0000  00 00 1a 00 2f 48 00 00 74 d0 da a1 00 00 00 00   ..../H..t.......
0010  10 30 8a 09 c0 00 cc 00 00 00 d4 00 00 00 3c 71   .0............<q
0020  bf 0d 7e 18 5d 48 63 ed                           ..~.]Hc.

No.     Time           Source                Destination           Protocol Length Info
    143 4.800268439    Espressi_0d:7e:1d     Broadcast             802.11   301    Beacon frame, SN=71, FN=0, Flags=........C, BI=300, SSID=Wildcard (Broadcast)

Frame 143: 301 bytes on wire (2408 bits), 301 bytes captured (2408 bits) on interface 0
    Interface id: 0 (mon2)
    Encapsulation type: IEEE 802.11 plus radiotap radio header (23)
    Arrival Time: Apr  5, 2020 11:04:55.791279211 CEST
    [Time shift for this packet: 0.000000000 seconds]
    Epoch Time: 1586077495.791279211 seconds
    [Time delta from previous captured frame: 0.054581442 seconds]
    [Time delta from previous displayed frame: 0.135044476 seconds]
    [Time since reference or first frame: 4.800268439 seconds]
    Frame Number: 143
    Frame Length: 301 bytes (2408 bits)
    Capture Length: 301 bytes (2408 bits)
    [Frame is marked: False]
    [Frame is ignored: False]
    [Protocols in frame: radiotap:wlan_radio:wlan]
Radiotap Header v0, Length 26
802.11 radio information
IEEE 802.11 Beacon frame, Flags: ........C
IEEE 802.11 wireless LAN

0000  00 00 1a 00 2f 48 00 00 4a d7 dc a1 00 00 00 00   ..../H..J.......
0010  10 02 8a 09 a0 00 cc 00 00 00 80 00 00 00 ff ff   ................
0020  ff ff ff ff 3c 71 bf 0d 7e 1d 3c 71 bf 0d 7e 1d   ....<q..~.<q..~.
0030  70 04 97 e9 39 db 00 00 00 00 2c 01 21 04 00 00   p...9.....,.!...
0040  01 08 8b 96 82 84 0c 18 30 60 03 01 07 05 05 01   ........0`......
0050  02 00 00 00 07 06 55 53 20 01 0b 1e 2a 01 00 32   ......US ...*..2
0060  04 6c 12 24 48 2d 1a 6e 11 00 ff 00 00 00 00 00   .l.$H-.n........
0070  00 00 00 00 00 00 01 00 00 00 00 00 00 00 00 00   ................
0080  00 3d 16 07 05 00 00 00 00 00 00 00 00 00 00 00   .=..............
0090  00 00 00 00 00 00 00 00 00 dd 18 00 50 f2 02 01   ............P...
00a0  01 04 00 03 a4 00 00 27 a4 00 00 42 43 5e 00 62   .......'...BC^.b
00b0  32 2f 00 dd 45 18 fe 34 01 02 01 77 77 77 77 77   2/..E..4...wwwww
00c0  77 18 01 06 01 00 00 02 00 02 00 00 00 01 00 cb   w...............
00d0  cf 04 3c 71 bf 0d 7e 1d cf 00 00 00 00 00 00 88   ..<q..~.........
00e0  00 00 00 00 00 00 00 00 00 00 00 00 00 00 00 0a   ................
00f0  00 00 00 0f 00 00 3a 56 ed 85 dd 16 18 fe 34 06   ......:V......4.
0100  02 00 0b 45 53 50 4d 5f 30 44 37 45 31 43 8c bd   ...ESPM_0D7E1C..
0110  2a f5 dd 15 18 fe 34 0c 02 b8 27 eb 22 ef da 9a   *.....4...'."...
0120  ac c3 7f 9a 22 97 77 4d 78 66 89 81 ad            ....".wMxf...

No.     Time           Source                Destination           Protocol Length Info
    144 4.804950246    Espressi_0d:7e:19     Broadcast             802.11   301    Beacon frame, SN=86, FN=0, Flags=........C, BI=300, SSID=Wildcard (Broadcast)

Frame 144: 301 bytes on wire (2408 bits), 301 bytes captured (2408 bits) on interface 0
    Interface id: 0 (mon2)
    Encapsulation type: IEEE 802.11 plus radiotap radio header (23)
    Arrival Time: Apr  5, 2020 11:04:55.795961018 CEST
    [Time shift for this packet: 0.000000000 seconds]
    Epoch Time: 1586077495.795961018 seconds
    [Time delta from previous captured frame: 0.004681807 seconds]
    [Time delta from previous displayed frame: 0.004681807 seconds]
    [Time since reference or first frame: 4.804950246 seconds]
    Frame Number: 144
    Frame Length: 301 bytes (2408 bits)
    Capture Length: 301 bytes (2408 bits)
    [Frame is marked: False]
    [Frame is ignored: False]
    [Protocols in frame: radiotap:wlan_radio:wlan]
Radiotap Header v0, Length 26
802.11 radio information
IEEE 802.11 Beacon frame, Flags: ........C
IEEE 802.11 wireless LAN

0000  00 00 1a 00 2f 48 00 00 a7 e9 dc a1 00 00 00 00   ..../H..........
0010  10 02 8a 09 a0 00 de 00 00 00 80 00 00 00 ff ff   ................
0020  ff ff ff ff 3c 71 bf 0d 7e 19 3c 71 bf 0d 7e 19   ....<q..~.<q..~.
0030  60 05 2a ed 39 db 00 00 00 00 2c 01 21 04 00 00   `.*.9.....,.!...
0040  01 08 8b 96 82 84 0c 18 30 60 03 01 07 05 05 01   ........0`......
0050  02 00 00 00 07 06 55 53 20 01 0b 1e 2a 01 00 32   ......US ...*..2
0060  04 6c 12 24 48 2d 1a 6e 11 00 ff 00 00 00 00 00   .l.$H-.n........
0070  00 00 00 00 00 00 01 00 00 00 00 00 00 00 00 00   ................
0080  00 3d 16 07 05 00 00 00 00 00 00 00 00 00 00 00   .=..............
0090  00 00 00 00 00 00 00 00 00 dd 18 00 50 f2 02 01   ............P...
00a0  01 04 00 03 a4 00 00 27 a4 00 00 42 43 5e 00 62   .......'...BC^.b
00b0  32 2f 00 dd 45 18 fe 34 01 02 02 77 77 77 77 77   2/..E..4...wwwww
00c0  77 17 02 06 00 00 00 02 00 01 00 01 00 01 00 d0   w...............
00d0  c3 04 3c 71 bf 0d 7e 1d cf 00 00 00 00 00 00 88   ..<q..~.........
00e0  00 00 00 00 00 00 00 00 00 00 00 00 00 00 00 0a   ................
00f0  00 00 00 0f 00 00 d5 2c 2e b1 dd 16 18 fe 34 06   .......,......4.
0100  02 00 0b 45 53 50 4d 5f 30 44 37 45 31 38 38 15   ...ESPM_0D7E188.
0110  fd 32 dd 15 18 fe 34 0c 02 b8 27 eb 22 ef da 00   .2....4...'."...
0120  43 54 f9 8e 8c 29 f5 db b4 f6 6b 74 40            CT...)....kt@

No.     Time           Source                Destination           Protocol Length Info
    151 5.111830775    Espressi_0d:7e:19     Broadcast             802.11   301    Beacon frame, SN=87, FN=0, Flags=........C, BI=300, SSID=Wildcard (Broadcast)

Frame 151: 301 bytes on wire (2408 bits), 301 bytes captured (2408 bits) on interface 0
    Interface id: 0 (mon2)
    Encapsulation type: IEEE 802.11 plus radiotap radio header (23)
    Arrival Time: Apr  5, 2020 11:04:56.102841547 CEST
    [Time shift for this packet: 0.000000000 seconds]
    Epoch Time: 1586077496.102841547 seconds
    [Time delta from previous captured frame: 0.058953010 seconds]
    [Time delta from previous displayed frame: 0.306880529 seconds]
    [Time since reference or first frame: 5.111830775 seconds]
    Frame Number: 151
    Frame Length: 301 bytes (2408 bits)
    Capture Length: 301 bytes (2408 bits)
    [Frame is marked: False]
    [Frame is ignored: False]
    [Protocols in frame: radiotap:wlan_radio:wlan]
Radiotap Header v0, Length 26
802.11 radio information
IEEE 802.11 Beacon frame, Flags: ........C
IEEE 802.11 wireless LAN

